:100000000C94B5000C94F8000C94DD000C94DD0009
:100010000C94DD000C94DD000C94DD000C94DD00EC
:100020000C94DD000C94DD000C94DD000C94380180
:100030000C94DD000C94DD000C9414010C94DD0094
:100040000C94DD000C9416060C943B040C94610493
:100050000C94DD000C94DD000C94DD000C94DD00AC
:100060000C94DD000C94DD00436F6D6D616E647364
:100070003A0D0A20206970203C612E622E632E64A6
:100080003E202020202D205365742064657669630E
:10009000652049500D0A20206777203C612E622E92
:1000A000632E643E202020202D205365742067613C
:1000B00074657761790D0A20206272203C612E629E
:1000C0002E632E643E203C706F72743E202D2053B0
:1000D00065742062726F6B65720D0A20206964205E
:1000E0003C6E616D653E202020202020202D205375
:1000F000657420636C69656E742049440D0A202084
:1001000073686F77202020202020202020202020AE
:100110002D2053686F7720636F6E6669670D0A2024
:1001200020736176652020202020202020202020A0
:10013000202D205361766520746F20454550524F25
:100140004D0D0A2020726573657420202020202028
:1001500020202020202D204C6F6164206465666182
:10016000756C74730D0A0000870611241FBECFEF53
:10017000D8E0DEBFCDBF14E0A0E0B1E0ECE5F7E3EE
:1001800002C005900D92A43DB107D9F728E0A4ED77
:10019000B4E001C01D92AF35B207E1F710E0C5EB46
:1001A000D0E004C02197FE010E943A1BC43BD10756
:1001B000C9F70E9450010C94AC1B0C9400005C9891
:1001C0008FE99FE00197F1F700C000005C9A8FE390
:1001D0009CE90197F1F700C0000008958CB58F7776
:1001E0008CBD2A9808952A9A8CB580688CBD089594
:1001F0001F920F920FB60F9211248F938091AA062F
:1002000081110CC080910001882341F081E080932E
:10021000AA068093A9061092AB06289A8F910F9098
:100220000FBE0F901F9018951F920F920FB60F924E
:1002300011242F933F934F935F936F937F938F93EB
:100240009F93AF93BF93EF93FF930E94EC1AFF919C
:10025000EF91BF91AF919F918F917F916F915F913E
:100260004F913F912F910F900FBE0F901F901895B7
:100270001F920F920FB60F9211248F938091AB06AD
:100280008F5F8093AB068F910F900FBE0F901F90E2
:100290001895209A2898229A2A9A549A5C9A089536
:1002A000CF93DF93CDB7DEB7CB57D1090FB6F89414
:1002B000DEBF0FBECDBF14BE0FB6F894A8958091D7
:1002C0006000886180936000109260000FBE0E9401
:1002D000490189E0EDE1F1E0DE01AE5ABF4F019046
:1002E0000D928A95E1F7BE016E5A7F4FCE01865876
:1002F0009F4F0E94AF0478946CE371E0CE01865862
:100300009F4F0E9444056FE571E0CE0186589F4FD4
:100310000E94440580914C06811111C08CE496E046
:100320000E94A206892B59F0BE0166587F4F84E5D2
:1003300096E00E94130C8CE496E00E94AB0684E5E4
:1003400096E09093A5068093A4060E945F0C80E13E
:10035000A8968FAFA897A9961FAEA997AA961FAE89
:10036000AA97AB961FAEAB97AC961FAEAC97809199
:100370004106811112C081E496E00E94A206892BF9
:1003800061F044E0BE0169597F4F89E496E00E9424
:10039000940581E496E00E94AB0686E0E6E2F1E097
:1003A000DE01AF59BF4F01900D928A95E1F76CE7DE
:1003B00071E0CE0186589F4F0E9444052A9A5C98AE
:1003C0002FEF80E792E0215080409040E1F700C09D
:1003D0000000A8955C9AEFEFF1EE24E0E150F040C8
:1003E0002040E1F700C00000A8958FEF91EEE4E017
:1003F00081509040E040E1F700C0000080912E065F
:10040000811122C08EE296E00E94A206892BE1F0C3
:10041000A2960FADA297A3961FADA397A4962FAD5A
:10042000A497A5963FADA597A6964FADA697A7967C
:100430005FADA79769E476E086E396E00E94DB066D
:100440008EE296E00E94AB0686E396E00E942907C2
:100450006FE871E0CE0186589F4F0E94440586E008
:10046000E6E7F6E0DE01A55ABF4F01900D928A95AE
:10047000E1F780916A0690916B06A0916C06B091AD
:100480006D06E8968CAF9DAFAEAFBFAFE897809199
:100490006E0690916F06A0917006B0917106E49679
:1004A0008CAF9DAFAEAFBFAFE497809172069091D5
:1004B0007306A0917406B0917506E0968CAF9DAF5F
:1004C000AEAFBFAFE0978E0104591F4F9E01205978
:1004D0003F4FAE014C585F4FBE01655A7F4F86E3D8
:1004E00096E00E94E1076FE971E0CE0186589F4FC8
:1004F0000E94440580912505811111C085E295E097
:100500000E94A206892B59F0BE0166587F4F8DE2EA
:1005100095E00E94020885E295E00E94AB068DE21C
:1005200095E09093A7068093A6068091540690913B
:100530005506A0915606B091570689839A83AB83DE
:10054000BC8380915806909159069E838D8348E123
:1005500050E06AE576E0CE0107960E946B1B1E8E86
:1005600062961FAE62978CE390E061969FAF8EAF6C
:1005700061978091540690915506892B909156066B
:10058000892B90915706892B09F491C062EB71E099
:10059000CE0186589F4F0E944405BE016F5F7F4F7A
:1005A0008DE295E00E94830B0E94F8030E940F04E5
:1005B00063E274EF83E00E94FB0369EF71E0CE0118
:1005C00086589F4F0E944405C12CD12C76010CE324
:1005D00010E0BB24B3948091A6069091A7060E94D8
:1005E0007E0AE091A406F091A50686A58823A1F1D4
:1005F00016A680819181892B9281892B9381892BE9
:1006000059F180819181A281B3818093D404909328
:10061000D504A093D604B093D70484819581909398
:10062000D9048093D804BF016A5F7F4F48E150E04E
:100630008AED94E00E946B1B1092F1041092240545
:10064000109323050093220564ED74E08091A606C3
:100650009091A7060E94830BCE0186589F4F0E945F
:100660001D04882309F452C0CE0186589F4F0E9472
:100670002604E09183068D3011F08A3001F5EE23D7
:1006800059F3F0E0EC57F94F108268E072E0CE01C8
:1006900086589F4F0E94440564E876E08091A40646
:1006A0009091A5060E94B20C10928306D5CF69ECFA
:1006B00071E0CE0186589F4F0E94440575CF883067
:1006C00011F08F3769F4EE2339F2E150E09383069D
:1006D0006BE072E0CE0186589F4F0E944405BCCF6C
:1006E000EF3108F0B9CF91E09E0F90938306F0E0D0
:1006F000EC57F94F8083EA961FAE1EAEEA97E99653
:100700008FAFE997BE0168587F4FE4CF8091A9066B
:10071000882381F08091AB06863060F01092A906A4
:100720001092A80628986FE072E0CE0186589F4F7D
:100730000E9444058091AA068823D9F08091A806DA
:10074000811117C021E030E043E252E068E372E03B
:100750008091A6069091A7060E94F409882349F08B
:10076000B092A80665E272E0CE0186589F4F0E94C3
:1007700044058091A906811102C01092AA060E9428
:10078000001B2B013C014C185D086E087F08F5E644
:100790004F1651046104710408F41DCFEFE3FCE926
:1007A0003197F1F700C000006B017C0114CF529823
:1007B0005A9A813081F020F0823089F0E89A0895C9
:1007C00080916900826080936900809169008E7FCA
:1007D00080936900F3CF809169008360F9CF8091A5
:1007E00069008D7F80936900809169008160F0CFFE
:1007F00080E00C94D703F894E1E8F0E090819860F1
:1008000090839081892B8083709389006093880006
:10081000EFE6F0E080818260808378940895F89418
:1008200082E084BD83E085BD89EF87BDEEE6F0E020
:10083000808182608083789408952091EE07909162
:10084000EF0781E0291301C080E008959091EE0741
:100850008091EF07981769F0E091EE07F0E0E2551C
:10086000F84F80819091EE079F5F9F739093EE0702
:10087000089580E008951F920F920FB60F921124F1
:100880002F938F939F93EF93FF939091C600809146
:10089000EF078F5F8F732091EE07281741F0E091EB
:1008A000EF07F0E0E255F84F90838093EF07FF9158
:1008B000EF919F918F912F910F900FBE0F901F90EE
:1008C00018951F920F920FB60F9211248F939F933A
:1008D000EF93FF939091AC078091AD079817B1F01B
:1008E000E091AC07F0E0E455F94F80818093C600B9
:1008F0008091AC078F5F8093AC07FF91EF919F9140
:100900008F910F900FBE0F901F9018958091C1008E
:100910008F7D8093C1001092F007EFCFFC01208102
:10092000318142815381FB018081823081F493E0E7
:10093000220F331F441F551F9A95D1F760E074E2D0
:1009400084EF90E00E94181B8FEF820F089584E0DF
:10095000220F331F441F551F8A95D1F7EFCF1F93E6
:10096000CF93DF93EB012BE432E0FC013183208352
:100970001FB717FF01C0F8948981823019F5809163
:10098000C00082608093C000BE016F5F7F4FCE01C8
:1009900002960E948E048093C4001092C50088E9DC
:1009A0008093C10088819E81892B9F81892B9885A6
:1009B000892B8093C20017FF01C07894DF91CF91FB
:1009C0001F9108958091C0008D7FDCCF8091F0074A
:1009D00081111BC09091AC078091AD079817A9F0C9
:1009E00081E08093F007E091AC07F0E0E455F94F27
:1009F00080818093C6008091AC078F5F8093AC07A5
:100A00008091C10080628093C10008959C01909103
:100A1000AD078091AC079F5F8917C9F39091AD072F
:100A20009F5FE091AD07F0E0E455F94F608390934C
:100A3000AD078091C10085FF1092F007C9010C94A9
:100A4000E6049C01FB01460F571FE417F507A1F0D0
:100A50009091AD078091AC079F5F8917C9F3909182
:100A6000AD079F5F8191A091AD07B0E0A455B94F4C
:100A70008C939093AD07E9CF8091C10085FF1092D0
:100A8000F007C9010C94E604AC01FB012191BF0100
:100A9000222399F09091AD078091AC079F5F891751
:100AA000C9F39091AD079F5FE091AD07F0E0E45589
:100AB000F94F20839093AD07E8CF8091C10085FF67
:100AC0001092F007CA010C94E60420911B083091A3
:100AD0001C0881E0232B09F480E0089580911B0815
:100AE00090911C08892BF1F0E0911708F0911808FB
:100AF000E95FF74F808120911708309118082F5F28
:100B00003F4F2F70332730931808209317082091F8
:100B10001B0830911C082150310930931C08209388
:100B20001B08089580E00895FB0129E532E0DC010F
:100B300011963C932E9312964C9384B1886284B99B
:100B400080819181892B806C9281892B9381892B63
:100B50009481892B8CBD0895FC0110921E0885B1EB
:100B6000928121E030E001C0220F9A95EAF72095AA
:100B7000282325B98FE891E00197F1F700C0000024
:100B80008091050890910608892B21F1A091010818
:100B9000B0910208AF50B84F8C912091010830916C
:100BA00002082F5F3F4F2F703327309302082093A6
:100BB0000108209105083091060821503109309331
:100BC000060820930508A8958EBD80911E088823ED
:100BD000E1F3D6CF95B1828121E030E001C0220F50
:100BE0008A95EAF7892F822B85B98FE891E00197E2
:100BF000F1F700C000000895FC01848995894097B1
:100C000099F0A289B389AE0FBF1F6C93848995892F
:100C10000196958B848B8289938901968F70992791
:100C2000938B828B81E0089580E008951F920F924C
:100C30000FB60F9211242F933F934F935F936F93AF
:100C40007F938F939F93AF93BF93EF93FF930DB4D5
:100C500006FE19C08EB580931D0810921D0881E014
:100C600080931E08FF91EF91BF91AF919F918F915B
:100C70007F916F915F914F913F912F910F900FBE98
:100C80000F901F9018956EB587E098E00E94FC05C4
:100C9000E6CFCF93DF93EC0181EF97E00E94FC0554
:100CA000CE01DF91CF910C94AC05EF92FF920F93A0
:100CB0001F93CF93DF937C01EB018B01040F151F72
:100CC000C017D10731F0699181EF97E00E94FC05D0
:100CD000F7CFC701DF91CF911F910F91FF90EF9058
:100CE0000C94AC050F931F93CF93DF938C01EB0112
:100CF0006991662329F081EF97E00E94FC05F8CF07
:100D0000C801DF91CF911F910F910C94AC0580E148
:100D1000E7E0F8E0DF01982F1D929A95E9F7118A34
:100D2000108A138A128A158A148AE1EFF7E0DF012C
:100D30001D928A95E9F7118A108A138A128A158AF8
:100D4000148A0895FC0181E090E02081222311F0B3
:100D500090E080E0089521E0FC01208308958FEF6A
:100D60008EBD0DB407FEFDCF8EB508958EBD0DB4BA
:100D700007FEFDCF8EB50895680F791F3FEF8617E8
:100D8000970749F03EBD0DB407FEFDCF2EB5FC011F
:100D90002193CF01F4CF0895680F791F8617970725
:100DA00049F0FC012191CF012EBD0DB407FEFDCF0E
:100DB0002EB5F4CF08950F931F93CF93DF9300D0F8
:100DC00000D000D0CDB7DEB7FC0109831A832B8396
:100DD0003C834D835E8349815A812B813C818D8187
:100DE0009E8171836083138212821482168215821F
:100DF0001086178212861186F0933808E093370820
:100E00004115510511F0568345832115310511F027
:100E100030872783009711F09287818726960FB637
:100E2000F894DEBF0FBECDBFDF91CF911F910F9120
:100E3000089570E060E090E080E00E94D6192FEF06
:100E400081EE94E0215080409040E1F700C0000026
:100E500008950F931F93CF93DF93CDB7DEB76097BD
:100E60000FB6F894DEBF0FBECDBFDC0114962C91F7
:100E7000211138C08C01FC016185728587819085C4
:100E80000E94701766EB76E08FEA96E00E948B175F
:100E90006CEC76E08CEB96E00E94AF17C8010E94E4
:100EA000190780E1ECE2F1E0DE01119601900D926C
:100EB0008A95E1F7BE016F5F7F4F81E090E00E946D
:100EC000D6198F3FD1F4D80112968D919C9100973D
:100ED00049F0DC01ED91FC910480F581E02D63E6A1
:100EE00072E0099560960FB6F894DEBF0FBECDBFD5
:100EF000DF91CF911F910F91089581E0F8018483D4
:100F0000F1CFCF93DF93EB018FE198E00E94AC1A11
:100F100086E0FE01AFE1B8E001900D928A95E1F71D
:100F20008FE198E0DF91CF910C946C1ACF93DF930F
:100F3000EB018FE198E00E94AC1A88819981AA8127
:100F4000BB818093250890932608A0932708B0932F
:100F500028088FE198E0DF91CF910C946C1ACF9321
:100F6000DF93EB018FE198E00E94AC1A88819981B0
:100F7000AA81BB818093290890932A08A0932B080B
:100F8000B0932C088FE198E0DF91CF910C946C1A0C
:100F9000CF93DF93EB018FE198E00E94AC1A888138
:100FA0009981AA81BB8180932D0890932E08A093EC
:100FB0002F08B09330088FE198E0DF91CF910C9427
:100FC0006C1ACF92DF92EF92FF920F931F93CF9301
:100FD000DF93EC016A0179010E948107B601CE011D
:100FE0000E949607B701CE010E94AF07B801CE015B
:100FF000DF91CF911F910F91FF90EF90DF90CF90F5
:101000000C94C807DC0111967C936E9312961C9287
:10101000FC01E950FF4F1082118212821382349634
:101020001082118212821382349621E030E03183E3
:101030002083EC5FF10921E5DF011D922A95E9F794
:10104000EF5AFF4F20E4DF01322F1D923A95E9F766
:10105000E05CFF4FDF011D922A95E9F7EE59FF4F43
:1010600010828C509F4FFC0111821082089582E003
:101070000E94EA1482E00C9492120F931F938A014B
:1010800082E00E946B1530E020E041E00617170770
:101090002807390709F040E0842F1F910F91089528
:1010A0000F931F93CF93DF938B01EA0182E00E949D
:1010B0002F11B0E0A0E00097A105B105C1F0AE018D
:1010C00070E060E084179507A607B7070CF4AC0141
:1010D000B80182E00E94731697FF03C060E070E0E1
:1010E000CB01CB01DF91CF911F910F91089590E03B
:1010F00080E0F8CF68E473E080E090E00E940E0F9B
:1011000091E0873109F090E0892F0895AF92BF9266
:10111000CF92DF92EF92FF920F931F93CF93DF93C3
:10112000EC017C0124E5E20EF11C80E1F7018083F3
:10113000BE01675F7F4FFB0101900020E9F7CF01FF
:101140000197861B970BFE01ED5AFF4F108111117D
:1011500099C00C96FE01EB5AFF4F8F778083319632
:10116000108284E0319680839DE43196908391E5EE
:101170003196908394E531969083319690833196A1
:10118000808382EC111101C082E0FE01E35AFF4F1F
:1011900080833C97808191813D96908331968083B6
:1011A000FB0101900020E9F731975F01A61AB70A09
:1011B000FE01E05AFF4FB0823196A082A501CE0118
:1011C0008E599F4F0E94401BA501425F5F4F112324
:1011D00009F44AC0BE016F5D7F4FFB010190002002
:1011E000E9F731976F01C61AD70A4C0F5D1FFA0154
:1011F000EC5AFF4FD0828501005F1F4FFE01EA0DC0
:10120000FB1DED59FF4FC082C5018C599F4FA601B0
:101210008C0F9D1F0E94401BC00ED11EBE01675C3B
:101220007F4FFB0101900020E9F731978F01061BEA
:10123000170BCE018C0D9D1DFC01EC5AFF4F108346
:101240005601F2E0AF0EB11C8B5A9F4FFC01008398
:10125000F6E5CF0ED11CA801CE018C0D9D1D0E947C
:10126000401BA8014A0D5B1DB701CE01DF91CF9154
:101270001F910F91FF90EF90DF90CF90BF90AF90B4
:101280000C943D08DE019196FD0101900020E9F7E4
:1012900031979F012A1B3B0B5896FD0101900020BE
:1012A000E9F73197EA1BFB0B4096820F931F8E0FD5
:1012B0009F1F50CFCF93DF93EC01BC016C5A7F4F3F
:1012C00080ECFB0180833196108242E050E0CE0139
:1012D0000E943D08882341F00E94001BC550DF4F4B
:1012E000688379838A839B83DF91CF9108959F924E
:1012F000AF92BF92CF92DF92EF92FF920F931F9324
:10130000CF93DF93EC018C010C561F4F40E450E06B
:10131000B8010E9450086C01181619060CF04BC059
:101320000E94001BFE01E950FF4F6083718382839E
:101330009383F8018081807F8033E9F53296608164
:1013400071817627672776275E01F8E9AF0EB11C19
:101350007B0184E0E80EF11CFE01EE0DFF1DEC5652
:10136000FF4F9080108268567F4F8E01060F171F27
:10137000CE18DF08FE01EA50FF4F80818823A1F0DC
:10138000B501CE018C529F4F0E94541B892B61F4F2
:10139000FE01EC50FF4F0190F081E02D309721F0DD
:1013A000A601B801C5010995EC18FD08CE0DDF1D99
:1013B000CC56DF4F9882DF91CF911F910F91FF9014
:1013C000EF90DF90CF90BF90AF909F900895DC0199
:1013D0008D919C91009739F0DC01ED91FC91048096
:1013E000F581E02D099408958F929F92AF92BF925C
:1013F000CF92DF92EF92FF920F931F93CF93DF93E1
:10140000DC011296EC91E23079F010E0812FDF914F
:10141000CF911F910F91FF90EF90DF90CF90BF90F1
:10142000AF909F908F90089579016A01EC014C0173
:10143000B4E58B0E911C80E3F4018083FB010190E5
:101440000020E9F731978F01061B170BC901800FA8
:10145000911F9C012C5F3F4F2134310530F067E72D
:1014600072E0CE010E94E709D0CF0296FE01EB5A4E
:10147000FF4F80389105C0F5808382E090E09E01A7
:10148000280F391FF901EC5AFF4F10835C01F2E07D
:10149000AF0EB11C2B5A3F4FD9010C938A5A9F4F64
:1014A000A8018C0F9D1F0E94401B0A0D1B1DC80127
:1014B0008C5A9F4FA701B6018C0F9D1F0E94401BA5
:1014C000A701400F511FB401CE010E943D08182F03
:1014D000882309F49ACF0E94001BC950DF4F68830C
:1014E00079838A839B8392CF806880838FE7FE0114
:1014F000EA5AFF4F808383E090E0C1CFCF92DF9222
:10150000EF92FF920F931F93CF93DF93DC0112961C
:101510002C91223009F05CC0EC010E947A0862E94B
:1015200072E0882309F44FC0CE010E9477090E941F
:10153000001BFE01E950FF4F0081118122813381A0
:101540006B017C01C01AD10AE20AF30A34960081C9
:10155000118122813381AB01BC01401B510B620B15
:10156000730B8E010F5A1F4FD801ED91FC9128EBA0
:101570003BE0E29FC001E39F900DF29F900D11248C
:101580009695879596958795B0E0A0E08417950786
:10159000A607B70718F4CE010E945A09F801408146
:1015A00051812CED35E0429FC001439F900D529F29
:1015B000900D1124B0E0A0E08C159D05AE05BF058F
:1015C00038F46FEA72E0CE010E94E70983E08A8373
:1015D000DF91CF911F910F91FF90EF90DF90CF900F
:1015E0000895CF93DF93EC0182E00E94921260E0B5
:1015F0007EE280E090E00E940E0F80FD09C06AEC60
:1016000072E0CE010E94E70980E0DF91CF9108955A
:1016100020E050E040E061E082E00E940A13823066
:1016200099F74F815885BE016D5F7F4F82E00E9420
:101630000D148130B1F4C2E3A89568E473E080E052
:1016400090E00E940E0F873181F08823E9F28C31FF
:10165000D9F288EE93E000000197E9F7C15061F7F5
:10166000D3CF82E00E949212CFCF81E0CECF8F9273
:101670009F92AF92BF92EF92FF920F931F93CF93DF
:10168000DF93EC010E94001B4B015C018E010C56A4
:101690001F4F7E0125E9E20EF11C0E94001B681914
:1016A00079098A099B096838734181059105D0F44D
:1016B00040E450E0B801CE010E94500804976CF35A
:1016C000F8018081803249F7F7018081823029F763
:1016D000FE01E956FF4F80816BED72E0811104C07D
:1016E00081E006C064EF72E0CE010E94E70980E06D
:1016F000DF91CF911F910F91FF90EF90BF90AF902E
:101700009F908F9008950F931F93CF93DF93EC01D9
:101710008B0162EB71E00E94E709DE01139681E51F
:10172000F80101900D928A95E1F781E08A83CE015C
:101730000E94F10A182F81110DC06DE073E0CE01F7
:101740000E94E70983E08A83812FDF91CF911F9167
:101750000F910895CE010E948608182F6CE273E065
:10176000882341F0CE010E94370B182F811109C048
:1017700064E473E0CE010E94E709CE010E943708BD
:10178000E1CF6CE573E0CE010E94E70982E08A8335
:101790000E94001BFE01E950FF4F6083718382832A
:1017A0009383C550DF4F688379838A839B83CCCF33
:1017B000CF93DF93EC01188219821A821B828BE58A
:1017C00097E09D838C834FE050E06FE673E0CE019D
:1017D00006960E946B1B1D8A30EC3E8B28EA2F8BED
:1017E00081E0888F94E6998F9FEF9A8F9B8F9C8FD3
:1017F0001D8E3E8F2F8F88A389A31AA288E08BA30A
:101800008CED8CA38BEA8DA38DEC8EA38FEE8FA332
:101810008EEF9AECAFEEBEEB88A799A7AAA7BBA75D
:10182000DF91CF910895FC0175A764A716A60C94CB
:10183000D80BCF936115710519F480E0CF9108950D
:1018400041155105D1F3FB0190E080E020E0CAE0B2
:101850003191332301F160ED630F6A3080F4C89F4A
:10186000B001C99F700D1124CB01C097830F911D4A
:1018700037FD9A958F3F910559F350F3DECF3E32F5
:1018800051F42330D0F6DA01A20FB11D8C932F5FF3
:1018900090E080E0DDCF233081F6FA01838381E0A0
:1018A000CDCFDC019C968D919C91009739F0DC01A5
:1018B000ED91FC910480F581E02D099408950F933A
:1018C0001F93CF93DF93CDB7DEB7AC970FB6F894E5
:1018D000DEBF0FBECDBF8C014CE250E070E060E097
:1018E000CE0101960E947A1B89A59AA5ABA5BCA53D
:1018F00068E873E08E3F9A4CAF4EBE4B51F48CE2D9
:10190000FE013196D80101900D928A95E1F769E7C1
:1019100073E0C8010E94510CAC960FB6F894DEBF7C
:101920000FBECDBFDF91CF911F910F910895CF933F
:10193000DF93EC018EEF9AECAFEEBEEB88A799A790
:10194000AAA7BBA74CE250E070E060E0CE010E9485
:101950008A1B81E08EA768EA73E0CE01DF91CF9108
:101960000C94510C8F929F92AF92BF92CF92DF92C4
:10197000EF92FF920F931F93CF93DF9300D000D08D
:10198000CDB7DEB76115710509F446C2DC019C963E
:101990002D913C91232B09F43FC27B016F5F7F4F58
:1019A000F70120812032C9F38C0144E050E066EB5E
:1019B00073E0C7010E945D1B892BC1F468E6E62E27
:1019C00060E0F62EF7016491FFEFEF1AFF0A66233D
:1019D00009F40BC2D8019C968D919C91DC01ED918C
:1019E000FC910190F081E02D0995ECCF44E050E0AE
:1019F0006BEB73E0C7010E945D1B6C01892B09F042
:101A000043C160EC73E0C8010E94510C5801B6E17B
:101A1000AB0EB11CF12CE12C4AE0942E54E6852E3D
:101A2000F50181915F01843608F40AC1682D0E9496
:101A30000C1B805D8983892F692D0E940C1B805DA2
:101A40008A83892FE2E0A1E0B0E0AC0FBD1FAE0FAA
:101A5000B11D805D8C93EF5F81E090E08C0F9D1F46
:101A60008E0F911DFC011082D8019C968D919C9146
:101A7000DC01ED91FC910480F581E02DBE016F5FEA
:101A80007F4F0995B3E0EB16F10461F0F80184A5EE
:101A900095A5DC01ED91FC910480F581E02D6CECC5
:101AA00073E00995BFEFEB1AFB0AE4E0EE16F104D0
:101AB00009F0B6CF6EEC73E0C8010E94510C5801DA
:101AC000FEE1AF0EB11CF12CE12C2AE0922E34E69F
:101AD000832ED5018D915D01843608F4BDC0682D3B
:101AE0000E940C1B805D8983892F692D0E940C1B2D
:101AF000805D8A83892FE2E0A1E0B0E0AC0FBD1FDA
:101B0000AE0FB11D805D8C93EF5F81E090E08C0F94
:101B10009D1F8E0F911DFC011082D8019C968D9106
:101B20009C91DC01ED91FC910480F581E02DBE01DA
:101B30006F5F7F4F0995B3E0EB16F10461F0F80198
:101B400084A595A5DC01ED91FC910480F581E02D43
:101B50006CEC73E00995BFEFEB1AFB0AE4E0EE16BC
:101B6000F10409F0B6CF6AED73E0C8010E94510C90
:101B700078018AE0B82E94E6A92ED7018D917D01D7
:101B8000843608F475C06A2D0E940C1B805D898321
:101B9000892F6B2D0E940C1B805D8A83892FE2E0C8
:101BA000A1E0B0E0AC0FBD1FAE0FB11D805D8C9306
:101BB000EF5F81E090E08C0F9D1F8E0F911DFC0167
:101BC0001082D8019C968D919C91DC01ED91FC9145
:101BD0000480F581E02DBE016F5F7F4F0995B3E072
:101BE000CB16D10461F0F80184A595A5DC01ED9137
:101BF000FC910480F581E02D6CEC73E00995BFEF5A
:101C0000CB1ADB0AE4E0CE16D10409F0B6CF65EEBC
:101C100073E0C8010E94510CD8019C968D919C9153
:101C2000B8016A5F7F4FDC01ED91FC910480F58182
:101C3000E02D099568E072E0C8010E94510CD5C002
:101C4000E0E08A3008F4FFCE692D0E940C1B805D15
:101C50008983892FE1E0F7CEE0E08A3008F44CCFA9
:101C6000692D0E940C1B805D8983892FE1E044CFA0
:101C7000E0E08A3008F494CF6B2D0E940C1B805D4D
:101C80008983892FE1E08CCF43E050E063EF73E07C
:101C9000C7010E945D1B892B89F4B7016D5F7F4FDF
:101CA000A8014A5E5F4FC8010E94190CF82E67EF29
:101CB00073E0811157C067E074E0BECF43E050E0AD
:101CC0006BE174E0C7010E945D1B892B89F4B701A9
:101CD0006D5F7F4FA801425E5F4FC8010E94190CE3
:101CE000F82E6FE174E081113DC06DE274E0A4CF85
:101CF00043E050E066E474E0C7010E945D1B892B5D
:101D000009F048C0B3E0EB0EF11C60E270E0C701DF
:101D10000E94491B6C01892BD1F1A801B701C801B0
:101D20000E94190CF82E882391F1F601319690E06B
:101D300080E05AE0419120ED240F2A3060F4589F52
:101D40009001599F300D1124C901C097840F911D36
:101D500047FD9A95EFCF0097D1F0F80195838483E2
:101D60006AE474E0C8010E94510C8F2D0F900F900F
:101D70000F900F90DF91CF911F910F91FF90EF90F7
:101D8000DF90CF90BF90AF909F908F90089567E5C0
:101D900074E052CF43E050E066E774E0C7010E9470
:101DA0005D1B892BB1F4D70113968C916AE874E01E
:101DB000882309F441CFB7016D5F7F4F4FE050E0BA
:101DC000C80106960E946B1BF801158A6AE774E049
:101DD00033CF44E050E06EE974E0C7010E945D1B20
:101DE000892B31F4C8010E94970CFF24F394BDCFD6
:101DF00045E050E063EA74E0C7010E945D1B892B57
:101E000031F4C8010E94D80B69EA74E015CF61EC87
:101E100074E0C8010E94510CF12CA7CF8F929F92C1
:101E2000AF92BF92CF92DF92EF92FF92CF93DF9368
:101E300000D01F92CDB7DEB76B017C01E0910D01A0
:101E4000F0910E010995E0911101F09112010995AF
:101E5000C701AA27BB278D2C9E2CAF2CBB24209119
:101E6000190130911A01232B31F0E0911B01F091FF
:101E70001C01309781F5E0911701F0911801099547
:101E8000E0911701F0911801882D0995E091170153
:101E9000F09118018C2D0995E0911501F091160132
:101EA0000995F82EE0911301F09114010995E09144
:101EB0000F01F091100109958F2D0F900F900F9049
:101EC000DF91CF91FF90EF90DF90CF90BF90AF90D8
:101ED0009F908F90089589838A82CB8263E070E01F
:101EE000CE0101960995D8CF8F929F92AF92BF9263
:101EF000CF92DF92EF92FF921F93CF93DF9300D0A8
:101F000000D0CDB7DEB76B017C01142FE0910D013D
:101F1000F0910E010995E0911101F09112010995DE
:101F20006894C2F8E0911B01F0911C01C701AA2737
:101F3000BB278D2C9E2CAF2CBB24309789F5E091CC
:101F40001701F09118010995E0911701F09118011E
:101F5000882D0995E0911701F09118018C2D0995B4
:101F6000E0911701F0911801812F0995E09113017B
:101F7000F09114010995E0910F01F091100109957C
:101F80000F900F900F900F90DF91CF911F91FF90C6
:101F9000EF90DF90CF90BF90AF909F908F9008957B
:101FA00089838A82CB821C8364E070E0CE01019633
:101FB0000995DCCF4F925F926F927F928F929F92A2
:101FC000AF92BF92CF92DF92EF92FF920F931F9347
:101FD000CF93DF9300D01F92CDB7DEB74B015C01EA
:101FE0006A017901E0910D01F0910E010995E091EE
:101FF0001101F09112010995C501AA27BB27492CAF
:102000005A2C6B2C77242091190130911A01232B23
:1020100031F0E0911B01F0911C013097F1F5E09156
:102020001701F09118010995E0911701F09118013D
:10203000842D0995E0911701F0911801882D0995DB
:102040008601EC0CFD1C0E151F05F1F4E091130147
:10205000F09114010995E0910F01F091100109959B
:102060000F900F900F90DF91CF911F910F91FF90E4
:10207000EF90DF90CF90BF90AF909F908F907F9028
:102080006F905F904F900895E0911501F0911601C7
:102090000995F80181938F01D6CF89834A828B827B
:1020A00063E070E0CE0101960995E0911901F0918D
:1020B0001A01B701C6010995C9CF4F925F926F927D
:1020C0007F92AF92BF92CF92DF92EF92FF920F93E7
:1020D0001F93CF93DF9300D01F92CDB7DEB76B0174
:1020E0007C015A018901E0910D01F0910E010995E1
:1020F000E0911101F091120109956894C2F8E09104
:102100001B01F0911C01C701AA27BB274D2C5E2C97
:102110006F2C77243097E1F5E0911701F0911801C9
:102120000995E0911701F0911801842D0995E0912E
:102130001701F09118018C2D099575010A0D1B1DD1
:10214000E016F106E1F4E0911301F0911401099514
:10215000E0910F01F091100109950F900F900F90F1
:10216000DF91CF911F910F91FF90EF90DF90CF9073
:10217000BF90AF907F906F905F904F900895E091E7
:102180001701F0911801D7018D917D010995D8CFE4
:1021900089834A82CB8263E070E0CE010196099583
:1021A000E0911B01F0911C01B801C5010995CBCF4D
:1021B0008F929F92AF92BF92CF92DF92EF92FF9257
:1021C0000F931F93CF93DF9394E0899F60011124B5
:1021D0008FEFC81AD80A23E0CC0CDD1C2A95E1F752
:1021E000460190EE991A092C000CAA08BB088FED45
:1021F000D81A0D2C000CEE08FF08D0E0C0E0C50195
:10220000B4010E940E0F082F10E0102F0027C70105
:10221000B6010E940E0F080F111D0115110571F076
:10222000C501B4010E940E0FC82FD0E0DC2FCC27CF
:10223000C701B6010E940E0FC80FD11DC017D107EC
:10224000F1F6CE01DF91CF911F910F91FF90EF90AA
:10225000DF90CF90BF90AF909F908F9008958F9216
:102260009F92AF92BF92CF92DF92EF92FF920F9325
:102270001F93CF93DF9394E0899F600111248FEF28
:10228000C81AD80A23E0CC0CDD1C2A95E1F74601D8
:102290009AED991A092C000CAA08BB0889EDD81AE6
:1022A0000D2C000CEE08FF08D0E0C0E0C501B40121
:1022B0000E940E0F082F10E0102F0027C701B60153
:1022C0000E940E0F080F111D0115110571F0C501B7
:1022D000B4010E940E0FC82FD0E0DC2FCC27C7011D
:1022E000B6010E940E0FC80FD11DC017D107F1F61D
:1022F000CE01DF91CF911F910F91FF90EF90DF9072
:10230000CF90BF90AF909F908F9008954F925F9223
:102310006F927F928F929F92AF92BF92CF92DF92F5
:10232000EF92FF920F931F93CF93DF9341155105C7
:1023300009F461C08A014B0194E0899FE0011124F6
:102340006E018FEFC81AD80A83E0CC0CDD1C8A9589
:10235000E1F726019CED591A052C000C6608770858
:10236000C301B2010E940E0FA82E8BEDD81A0D2CBE
:10237000000CEE08FF08C701B6010E940E0FB12C39
:10238000BA2CAA24A80EB11CBE016E5F7F4F23E0B9
:10239000660F771F2A95E1F7072E000C880B990B23
:1023A000950150E040E0542F432F322F2227620F37
:1023B000731F841F951F9801A4010E945D100A0DD0
:1023C0001B1D412FC301B2010E94740F402FC70192
:1023D000B601DF91CF911F910F91FF90EF90DF90A9
:1023E000CF90BF90AF909F908F907F906F905F90B5
:1023F0004F900C94740FDF91CF911F910F91FF902C
:10240000EF90DF90CF90BF90AF909F908F907F9094
:102410006F905F904F9008954F925F926F927F926E
:102420008F929F92AF92BF92CF92DF92EF92FF92E4
:102430000F931F93CF93DF934115510509F461C0AA
:102440008A014B0194E0899FE00111246E018FEF16
:10245000C81AD80A83E0CC0CDD1C8A95E1F7260166
:1024600098ED591A052C000C66087708C301B201D3
:102470000E940E0FA82E87EDD81A0D2C000CEE0826
:10248000FF08C701B6010E940E0FB12CBA2CAA2476
:10249000A80EB11CBE016D5F7F4F23E0660F771F52
:1024A0002A95E1F7072E000C880B990B950150E057
:1024B00040E0542F432F322F2227620F731F841FB7
:1024C000951F9801A4010E94DA0F0A0D1B1D412FD0
:1024D000C301B2010E94740F402FC701B601DF9102
:1024E000CF911F910F91FF90EF90DF90CF90BF9011
:1024F000AF909F908F907F906F905F904F900C94D3
:10250000740FDF91CF911F910F91FF90EF90DF90AB
:10251000CF90BF90AF909F908F907F906F905F9083
:102520004F9008958F929F92AF92BF92CF92DF9279
:10253000EF92FF920F931F93CF93DF93893008F0B0
:1025400067C0F82E082F10E0E80195E0CC0FDD1FE2
:102550009A95E1F728964E019394092C000CAA084D
:10256000BB0840E1C501B4010E94740FC501B4016C
:102570000E940E0F8111FACFBE017E5F072E000C64
:10258000880B990B4FE10E94740F81E090E002C02C
:10259000880F991FFA94E2F780959095209153083F
:1025A000309154082823392330935408209353083A
:1025B000209151083091520882239323909352081E
:1025C00080935108F801EE0FFF1FEF5BF74F118268
:1025D0001082F801E75CF74F10826E018DEFD81A78
:1025E0000D2C000CEE08FF08C701B6010E940E0F6B
:1025F0008111FACF81E0DF91CF911F910F91FF9070
:10260000EF90DF90CF90BF90AF909F908F90089504
:102610008FEFF1CF4F925F926F927F928F929F9246
:10262000AF92BF92CF92DF92EF92FF920F931F93E0
:10263000CF93DF9300D000D0CDB7DEB7182F762E22
:102640004A01022F8FEF1930F0F421E0621739F0C0
:10265000621718F084E0861758F58BEF14C024E059
:1026600030E0AE014F5F5F4F60E07FE080E090E0E0
:102670000E94DA0F89819A81AB81BC81892B8A2BD8
:102680008B2BB1F48DEF0F900F900F900F90DF9187
:10269000CF911F910F91FF90EF90DF90CF90BF905F
:1026A000AF909F908F907F906F905F904F90089524
:1026B00002FD9DC0002341F091E0791609F493C01A
:1026C00022E0721609F495C0812F0E949212E12E29
:1026D000F12C670125E0CC0CDD1C2A95E1F7C60141
:1026E00008966C01402F407F4729BC01990F880B49
:1026F000990B0E94740F8114910479F48090010168
:1027000090900201C4010196803F2FEF920709F4D7
:1027100079C09093020180930101B6017C5F072E7E
:10272000000C880B990B492D0E94740FB6017B5F3A
:10273000072E000C880B990B482D0E94740F260160
:102740005394052C000C6608770841E0C301B201E0
:102750000E94740FC301B2010E940E0F8111FACFC3
:1027600081E090E0012E02C0880F991F0A94E2F7E1
:10277000809590952091530830915408282339234F
:1027800000FBAA24A0F8B12C012E02C0AA0CBB1C8D
:102790000A94E2F7A22AB32AB0925408A0925308EE
:1027A000209151083091520882239323909352082C
:1027B00080935108F701EE0FFF1FEF5BF74F118277
:1027C0001082F701E75CF74F10829DEFD91A0D2CAC
:1027D000000CEE08FF08C701B6010E940E0F882307
:1027E000D1F3812F50CF802F817209F06DCF8AEF06
:1027F0004ACF05FF02C007FFFACF04FF65CF07FFEE
:10280000F6CF62CF80E090EC9093020180930101BB
:102810009FEE892E99249A9480CF7F928F929F92D7
:10282000AF92BF92CF92DF92EF92FF920F931F93DE
:10283000CF93DF93893008F0C3C06A017B01782E03
:1028400024E0829FE0011124219653E0CC0FDD1F8C
:102850005A95E1F7BE010D2E000C880B990B0E94D2
:102860000E0F8F70813009F0ADC04E018DEF981AB8
:10287000092C000CAA08BB08C501B4010E940E0F68
:10288000833109F0A1C0F701008110E030E020E0C1
:10289000322F212F102F00278181080F111D211D9C
:1028A000311D322F212F102F00278281080F111D7B
:1028B000211D311D322F212F102F0027838190E001
:1028C000B0E0A0E00197A109B109800F911FA21FFC
:1028D000B31F8E3F9F4FAF4FBF4F08F077C085EFBC
:1028E000C114D10409F456C0BE01745F072E000C58
:1028F000880B990B24E030E0A7010E945D10BE0117
:10290000705F072E000C880B990B4D2D0E94740FE1
:10291000BE017F5E072E000C880B990B4C2D0E9488
:10292000740F6E01D3940D2C000CEE08FF0844E0E8
:10293000C701B6010E94740FC701B6010E940E0FB5
:102940008111FACF81E090E002C0880F991F7A943C
:10295000E2F7209153083091540882239323892B66
:10296000B9F5DE5F6E01DD0FEE08FF08C501B401A9
:102970000E940E0F873111F481E00CC0C701B6012F
:102980000E940E0F83FF14C048E0C701B6010E94E9
:10299000740F83EFDF91CF911F910F91FF90EF9014
:1029A000DF90CF90BF90AF909F908F907F900895D1
:1029B000C501B4010E940E0F8111D8CF8CEFEACF70
:1029C0008FEFE8CF8BEFE6CF8DEFE4CF84EFE2CF50
:1029D00080E0E0CF8F929F92AF92BF92CF92DF9232
:1029E000EF92FF92CF93893008F06FC0C82F84E038
:1029F000C89F600111248FEFC81AD80A83E0CC0C5D
:102A0000DD1C8A95E1F7B6010D2C000C880B990BA3
:102A10000E940E0F8F70813009F059C046019394C7
:102A2000092C000CAA08BB0848E0C501B4010E94AB
:102A3000740FC501B4010E940E0F8111FACF81E01D
:102A400090E00C2E02C0880F991F0A94E2F7AC01A7
:102A500040955095209151083091520824233523F8
:102A60003093520820935108209153083091540814
:102A700082239323892B69F546018DEF981A092C3F
:102A8000000CAA08BB088EEFD81A0D2C000CEE081B
:102A9000FF08C501B4010E940E0F811102C081E040
:102AA0000AC0C701B6010E940E0F83FFF2CF8C2F20
:102AB0000E94921283EFCF91FF90EF90DF90CF9022
:102AC000BF90AF909F908F9008958FEFF4CF8BEFD2
:102AD000F2CF80E0F0CF2F923F924F925F927F92A1
:102AE0008F929F92AF92BF92CF92DF92EF92FF921E
:102AF0000F931F93CF93DF9300D000D0CDB7DEB7F5
:102B0000893008F0E7C06A017A836983782E24E06F
:102B1000829F800111240F5F1F4F83E0000F111F60
:102B20008A95E1F7B801012E000C880B990B0E94E1
:102B30000E0F8F70813009F0D1C062EF7FEF8FEF01
:102B40009FEFC114D10409F46CC048013DEF931A02
:102B5000092C000CAA08BB08C501B4010E940E0F85
:102B6000873119F08C3109F052C081E090E07C018E
:102B7000072C02C0EE0CFF1C0A94E2F7809151086A
:102B8000909152088E219F21892BF9F018018EEF28
:102B9000381A032C000C44085508C201B1010E94E8
:102BA0000E0F84FF39C040E1C201B1010E94740FD1
:102BB0008091510890915208970120953095822379
:102BC00093239093520880935108B801715E072EA9
:102BD000000C880B990B0E940E0F1B82880F880F28
:102BE0008C832B813C81C216D30610F4DC82CB820D
:102BF000872D0E94D8106C01C501B4010E940E0FF0
:102C0000873169F18C3159F1872D0E94921269EF59
:102C10007FEF8FEF9FEF05C083FD19C060E070E08C
:102C2000CB010F900F900F900F90DF91CF911F91DC
:102C30000F91FF90EF90DF90CF90BF90AF909F905B
:102C40008F907F905F904F903F902F900895872DA9
:102C50000E94921263EF7FEF8FEF9FEFE2CF8091A0
:102C60005308909154088E219F21892B61F18B810B
:102C70009C81C816D90690F24B815C8169817A816A
:102C8000872D0E94861113954801110FAA08BB08D1
:102C900040E2C501B4010E94740FC501B4010E9455
:102CA0000E0F8111FACF8091510890915208E82AB5
:102CB000F92AF0925208E09251082B813C81B90127
:102CC00090E080E0AECF2B813C81C216D30608F4A1
:102CD0008FCFD2CF6FEF7FEFCB01A3CF6BEF7FEF23
:102CE0008FEF9FEF9ECF2F923F924F925F926F9206
:102CF0007F928F929F92AF92BF92CF92DF92EF928C
:102D0000FF920F931F93CF93DF9300D000D000D09A
:102D1000CDB7DEB7893008F0CBC03A017C836B8336
:102D2000382E24E0829F800111240F5F1F4F33E073
:102D3000000F111F3A95E1F7B801012E000C880B26
:102D4000990B0E940E0F8F70813009F0B5C062EFB1
:102D50007FEF8FEF9FEF6114710409F44BC0B8014E
:102D6000725E072E000C880B990B0E940E0F282E06
:102D700081E090E09C01032C02C0220F331F0A94D3
:102D8000E2F73A83298368013DEFD31A0D2C000C3A
:102D9000EE08FF08480181EE981A092C000CAA08D9
:102DA000BB08832D0E942F119E838D83C701B6011E
:102DB0000E940E0F8731B9F18C31A9F42D813E812B
:102DC000232B09F047C0832D0E94D8102C01C50188
:102DD000B4010E940E0F90E0982F8827990F990F49
:102DE0004816590601F5832D0E94921269EF7FEF74
:102DF0008FEF9FEF26960FB6F894DEBF0FBECDBFC4
:102E0000DF91CF911F910F91FF90EF90DF90CF90C6
:102E1000BF90AF909F908F907F906F905F904F90FA
:102E20003F902F90089580915308909154082981E4
:102E30003A8182239323892B41F08D819E81892BB6
:102E400049F460E070E0CB01D5CF2D813E81232B8A
:102E500009F4A7CF80E0922D990F990F6816790693
:102E600008F4C3012D813E813A8329838217930799
:102E700010F49A83898349815A816B817C81832DE7
:102E80000E940C1213956801110FEE08FF0840E430
:102E9000C701B6010E94740FC701B6010E940E0F50
:102EA0008111FACF29813A81B90190E080E0A2CF67
:102EB0006FEF7FEFCB019ECF6BEF7FEF8FEF9FEF39
:102EC00099CF0895FB0180810895FB014083089507
:102ED00080E0089508950895089508950895089547
:102EE000009719F06115710569F48EE697E19093EA
:102EF0001201809311018FE697E190931401809362
:102F0000130108959093120180931101709314019D
:102F10006093130108952091030130910401222749
:102F2000327021153105E9F3009719F0611571052B
:102F300069F488E697E190931601809315018AE67B
:102F400097E19093180180931701089590931601CB
:102F500080931501709318016093170108952091D3
:102F60000301309104012227327021153105E9F364
:102F7000009719F06115710569F48BE697E190935C
:102F80001A01809319018CE697E190931C018093BC
:102F90001B01089590931A018093190170931C01ED
:102FA00060931B010895CF93DF93CDB7DEB762978F
:102FB0000FB6F894DEBF0FBECDBF26E030E0AE0105
:102FC0004F5F5F4F60E079E080E090E00E94DA0FB1
:102FD00024E030E0AE01415F5F4F60E071E080E0EF
:102FE00090E00E94DA0F24E030E0AE01455F5F4FD1
:102FF00060E075E080E090E00E94DA0F24E030E0CD
:10300000AE01495F5F4F60E07FE080E090E00E94AA
:10301000DA0F40E860E070E0CB010E94740F60E0DE
:1030200070E0CB010E940E0F26E030E0AE014F5F52
:103030005F4F60E079E080E090E00E945D1024E066
:1030400030E0AE01415F5F4F60E071E080E090E012
:103050000E945D1024E030E0AE01455F5F4F60E00C
:1030600075E080E090E00E945D1024E030E0AE0169
:10307000495F5F4F60E07FE080E090E00E945D107C
:1030800062960FB6F894DEBF0FBECDBFDF91CF9131
:103090000895CF92DF92EF92FF920F931F93CF93F9
:1030A000DF938C01EB010E94D3170115110531F15B
:1030B0009801285F3F4FF80180E09191890F81319D
:1030C0000CF04CC02E173F07C1F798E0C92E9FE1C6
:1030D000D92EE12CF12CF80141918F01C701B601E5
:1030E0000E94740FF0E2CF0ED11CE11CF11C88E0AD
:1030F000C81680E2D806E104F10469F7209751F47C
:1031000080E0DF91CF911F910F91FF90EF90DF90C2
:10311000CF9008959E01285F3F4FFE0180E091917E
:10312000890F8131DCF42E173F07C9F788E0C82EDC
:103130008EE1D82EE12CF12C4991C701B6010E94F5
:10314000740FE0E2CE0ED11CE11CF11CF8E0CF16AA
:10315000FFE1DF06E104F10479F7D2CF8FEFD1CFA1
:10316000CF92DF92EF92FF920F931F93CF93DF9353
:10317000092F10E0482F407F60E075E180E090E08B
:103180000E94740F88E0C82E82E0D82EE12CF12C2A
:10319000D0E0C0E0C8010C2E02C0959587950A9436
:1031A000E2F780FF05C04FE1C701B6010E94740F2E
:1031B000219680E2C80ED11CE11CF11C28E0C21649
:1031C00023E0D206E104F10429F7DF91CF911F91AA
:1031D0000F91FF90EF90DF90CF900895CF9360E034
:1031E00075E180E090E00E940E0FC82F60E077E16B
:1031F00080E090E00E940E0F282F30E0322F22272F
:103200008C2F807F820F932F911DCF910895CF93A4
:10321000C92F482F60E076E180E090E00E94740FB3
:103220004C2F60E078E180E090E0CF910C94740F37
:10323000CF9360E076E180E090E00E940E0FC82F0F
:1032400060E078E180E090E00E940E0F90E0982F1F
:1032500088278C0F911DCF91089560E07EE280E079
:1032600090E00E940E0F8170089560E07EE280E0A1
:1032700090E00E940E0F982F987381E0903309F030
:1032800080E0089560E07EE280E090E00E940E0F12
:10329000482F4F7760E07EE280E090E00E94740F5C
:1032A00060E07EE280E090E00E940E0F482F4068D0
:1032B00060E07EE280E090E00C94740FFC0180817D
:1032C00040E4813009F040E08181813049F4486375
:1032D00060E07EE280E090E00E94740F0C9442195E
:1032E00082819381913031F4813011F44861F0CFC3
:1032F0004860EECF813061F74061EACFCF93DF9332
:10330000EC0160E07EE280E090E00E940E0F86FB20
:10331000992790F998838873803211F08833A9F443
:1033200091E09983883121F0803211F0803179F475
:1033300091E09A83883121F0803211F0883049F48D
:1033400081E08B83DF91CF9108951982EBCF1A82B0
:10335000F1CF1B82F7CFCF93C82F60E07EE280E0F1
:1033600090E00E940E0F86FF18C0482F477CC130A6
:10337000B9F4406360E07EE280E090E00E94740F68
:103380000E94421960E07EE280E090E00E940E0F11
:10339000C13041F48073811107C08FEFCF91089540
:1033A0004863E8CF8873F7CF80E0F8CF1F93CF93BF
:1033B000DF938031910508F08DC0EB01FC01ED51E8
:1033C000F64E0C943A1BF319FA190B1A061A101A36
:1033D000151A181A271A3C1A501A531A571AF5199F
:1033E0005B1A611A671A0E94D31780E0DF91CF91B0
:1033F0001F910895685F7F4F209711F470E060E09F
:10340000CE01DF91CF911F910C9449188881998149
:103410000E94B018EACF0E94EE1899838883E5CF06
:10342000888199810E940719E0CF0E941819F5CF71
:10343000498160E073E180E090E00E94740F488170
:1034400060E074E180E090E00E94740FCECF60E015
:1034500073E180E090E00E940E0F182F60E074E1AD
:1034600080E090E00E940E0F212F30E0322F2227C3
:10347000820F932F911DD1CF809105018883809178
:1034800006018983809107018A83809108018B83DB
:10349000809109018C8380910A018D831E82A5CFC2
:1034A0000E944219A2CFCB010E945E199ECFCB0190
:1034B0000E947E199ACF8881DF91CF911F910C9441
:1034C000AB190E9435198F3F29F088838ECF0E9457
:1034D0002D19F9CF8FEF8ACFCF93DF93EC0126E040
:1034E00030E0AC0160E079E080E090E00E945D10A7
:1034F000AE01425F5F4F24E030E060E071E080E0C9
:1035000090E00E945D10AE01465F5F4F24E030E026
:1035100060E075E080E090E00E945D10AE014A5FDF
:103520005F4F24E030E060E07FE080E090E00E94C8
:103530005D10E7E5F8E08A8980838B8981838C8937
:1035400082838D8983838E899F8990935608809387
:103550005508DF91CF910895CF93DF93EC0126E0DA
:1035600030E0AC0160E079E080E090E00E94DA0FAA
:10357000AE01425F5F4F24E030E060E071E080E048
:1035800090E00E94DA0FAE01465F5F4F24E030E02A
:1035900060E075E080E090E00E94DA0FAE014A5FE3
:1035A0005F4F24E030E060E07FE080E090E00E9448
:1035B000DA0FE7E5F8E080818A8B81818B8B82814D
:1035C0008C8B83818D8B80915508909156089F8BB1
:1035D0008E8BDF91CF91089580915B0890915C086C
:1035E000A0915D08B0915E080196A11DB11D809368
:1035F0005B0890935C08A0935D08B0935E08089503
:103600002FB7F89460915B0870915C0880915D0819
:1036100090915E082FBF0895991B79E004C0991F0F
:10362000961708F0961B881F7A95C9F7809508951C
:10363000A1E21A2EAA1BBB1BFD010DC0AA1FBB1FB6
:10364000EE1FFF1FA217B307E407F50720F0A21B28
:10365000B30BE40BF50B661F771F881F991F1A9495
:1036600069F760957095809590959B01AC01BD01BF
:10367000CF010895EE0FFF1F0590F491E02D0994FE
:10368000FB01DC0102C001900D9241505040D8F77F
:103690000895FC018191861721F08823D9F7992795
:1036A00008953197CF010895FB01DC018D910190C0
:1036B00080190110D9F3990B0895FB01DC014150E9
:1036C000504030F08D910190801919F40020B9F725
:1036D000881B990B0895FB01DC014150504048F0D4
:1036E00001900D920020C9F701C01D924150504039
:1036F000E0F70895DC01CB01FC01F999FECF06C08B
:10370000F2BDE1BDF89A319600B40D92415050409F
:10371000B8F70895DC01A40FB51F4150504048F0A0
:10372000CB01840F951F2E910E949B1B415050404E
:10373000D0F70895262FF999FECF92BD81BDF89A52
:10374000019700B4021639F01FBA20BD0FB6F894E5
:0C375000FA9AF99A0FBE0895F894FFCF82
:10375C000100C00102573535303000000061176D93
:10376C00176E176F17621765170000000000000036
:10377C004B0000000600DF00EE00F3000401010125
:10378C000101010104010101010101010D0A3D3D8D
:10379C003D20536D6172742042656C6C20776974A6
:1037AC006820436F6E666967203D3D3D0D0A0054ED
:1037BC00797065202768656C702720666F722063AE
:1037CC006F6D6D616E64730D0A0D0A005B45544894
:1037DC005D20496E69742057353530300D0A005B19
:1037EC004554485D20496E6974204F4B0D0A005BAF
:1037FC004554485D204E6574776F726B204F4B0DAE
:10380C000A005B4D5154545D20436F6E6E656374BA
:10381C00696E672E2E2E0D0A005B4D5154545D209F
:10382C004E6F2062726F6B657220636F6E66696794
:10383C0075726564202D20757365202762722720B0
:10384C00746F207365740D0A005B5359535D2053DC
:10385C007461727465640D0A0D0A00082008005B1F
:10386C0042454C4C5D2052696E6720656E64656400
:10387C000D0A0031005B4D5154545D205075626C43
:10388C0069736865640D0A00686F6D652F62656CFD
:10389C006C2F72696E67000000000006052105445C
:1038AC00051D042604000000004906550672066535
:1038BC00056E0557495A4348495020494E495420F2
:1038CC004641494C4544005B4D5154545D20507564
:1038DC00626C69736820746F6F206C617267650D20
:1038EC000A005B4D5154545D20536F636B6574201B
:1038FC00646973636F6E6E65637465640D0A005B57
:10390C004D5154545D204B656570616C6976652032
:10391C0074696D656F75740D0A005B4D5154545D7F
:10392C00204E6F206C696E6B0D0A005B4D51545428
:10393C005D20434F4E4E41434B2072656675736557
:10394C00640D0A005B4D5154545D20434F4E4E4163
:10395C00434B2074696D656F75740D0A005B4D5196
:10396C0054545D20536F636B657420636F6E6E658A
:10397C006374206661696C65640D0A005B4D51547B
:10398C00545D20434F4E4E454354206661696C652F
:10399C00640D0A005B4D5154545D20434F4E4E4113
:1039AC00434B206661696C65640D0A005B4D515494
:1039BC00545D20436F6E6E65637465640D0A00730D
:1039CC006D61727462656C6C005B4346475D204CA4
:1039DC006F616465640D0A005B4346475D20496E68
:1039EC0076616C69642C207573696E6720646566FA
:1039FC0061756C74730D0A005B4346475D2053611F
:103A0C007665640D0A0068656C700073686F7700EA
:103A1C004465766963652049503A20002E000D0AF2
:103A2C00476174657761793A20000D0A42726F6BB9
:103A3C0065723A20000D0A436C69656E7420494426
:103A4C003A2000697020004465766963652049500E
:103A5C00207365740D0A004572726F723A20496EBC
:103A6C0076616C69642049500D0A00677720004725
:103A7C00617465776179207365740D0A0045727203
:103A8C006F723A20496E76616C6964206761746567
:103A9C007761790D0A006272200042726F6B657259
:103AAC00207365740D0A004572726F723A2055735B
:103ABC006167653A206272203C69703E203C706FF1
:103ACC0072743E0D0A0069642000436C69656E7463
:103ADC00204944207365740D0A004572726F723A66
:103AEC0020496E76616C69642049440D0A0073614B
:103AFC007665007265736574005B4346475D2044D0
:103B0C00656661756C7473206C6F616465640D0A15
:103B1C0000556E6B6E6F776E20636F6D6D616E64AA
:043B2C000D0A00007E
:00000001FF
