:100000000C94B5000C94F8000C94DD000C94DD0009
:100010000C94DD000C94DD000C94DD000C94DD00EC
:100020000C94DD000C94DD000C94DD000C942F0189
:100030000C94DD000C94DD000C940B010C94DD009D
:100040000C94DD000C944E060C940A050C943005BB
:100050000C94DD000C94DD000C94DD000C94DD00AC
:100060000C94DD000C94DD00436F6D6D616E647364
:100070003A0D0A20206970203C612E622E632E64A6
:100080003E202020202D205365742064657669630E
:10009000652049500D0A20206777203C612E622E92
:1000A000632E643E202020202D205365742067613C
:1000B00074657761790D0A20206272203C612E629E
:1000C0002E632E643E3A3C706F72743E202D205396
:1000D00065742062726F6B65720D0A20206964205E
:1000E0003C6E616D653E202020202020202D205375
:1000F000657420636C69656E742049440D0A202084
:1001000073686F77202020202020202020202020AE
:100110002D2053686F7720636F6E6669670D0A2024
:1001200020736176652020202020202020202020A0
:10013000202D205361766520746F20454550524F25
:100140004D0D0A2020726573657420202020202028
:1001500020202020202D204C6F6164206465666182
:10016000756C74730D0A0000BF0611241FBECFEF1B
:10017000D8E0DEBFCDBF15E0A0E0B1E0E4E9F9E3EF
:1001800002C005900D92AE33B107D9F727E0AEE378
:10019000B5E001C01D92A73CB207E1F710E0C5EB46
:1001A000D0E004C02197FE010E943C1CC43BD10753
:1001B000C9F70E9447010C94C81C0C9400005C987D
:1001C0008FE99FE00197F1F700C000005C9A8FE390
:1001D0009CE90197F1F700C0000008958CB58F7776
:1001E0008CBD2A9808952A9A8CB580688CBD089594
:1001F0001F920F920FB60F9211248F9380910001DE
:10020000882319F081E0809315078F910F900FBE1E
:100210000F901F9018951F920F920FB60F921124F6
:100220002F933F934F935F936F937F938F939F93FE
:10023000AF93BF93EF93FF930E94DA1BFF91EF916F
:10024000BF91AF919F918F917F916F915F914F91EE
:100250003F912F910F900FBE0F901F9018951F92F6
:100260000F920FB60F9211248F93809116078F5F14
:10027000809316078F910F900FBE0F901F901895C7
:10028000209A2898229A2A9A549A5C9A0895CF9391
:10029000DF93CDB7DEB7CA5CD1090FB6F894DEBFE5
:1002A0000FBECDBF14B714BE0FB6F894A8958091B9
:1002B0006000886180936000109260000FBE0E9411
:1002C000400189E0EDE1F1E0DE01AD55BF4F019065
:1002D0000D928A95E1F7BE016D557F4FCE01875390
:1002E0009F4F0E94660578946CE371E0CE018753BE
:1002F0009F4F0E94DF046FE571E0CE0187539F4F4F
:100300000E94DF0413FF07C06CE771E0CE01875342
:100310009F4F0E94DF0412FF07C068E871E0CE0122
:1003200087539F4F0E94DF0411FF07C064E971E00B
:10033000CE0187539F4F0E94DF0410FF07C065EA7C
:1003400071E0CE0187539F4F0E94DF048091B60673
:10035000811111C086EB96E00E94DA06892B59F0D4
:10036000BE0167537F4F8EEB96E00E945E0C86EBDA
:1003700096E00E94E3068EEB96E090930F07809341
:100380000E070E94AA0C80E1C854DF4F8883C85B27
:10039000D040C754DF4F1882C95BD040C654DF4FEE
:1003A0001882CA5BD040C554DF4F1882CB5BD04067
:1003B000C454DF4F1882CC5BD0408091AB068111D2
:1003C00012C08BEA96E00E94DA06892B61F044E0C5
:1003D000BE0168547F4F83EB96E00E94CC058BEA08
:1003E00096E00E94E30686E0E6E2F1E0DE01AE542C
:1003F000BF4F01900D928A95E1F765EB71E0CE0158
:1004000087539F4F0E94DF042A9A5C982FEF80E762
:1004100092E0215080409040E1F700C00000A89594
:100420005C9AEFEFF1EE24E0E150F0402040E1F77C
:1004300000C00000A8958FEF91EEE4E0815090405D
:10044000E040E1F700C000008091980681112EC0C5
:1004500088E996E00E94DA06892B41F1CE54DF4FFD
:100460000881C25BD040CD54DF4F1881C35BD040C0
:10047000CC54DF4F2881C45BD040CB54DF4F388150
:10048000C55BD040CA54DF4F4881C65BD040C954D9
:10049000DF4F5881C75BD04063EB76E080EA96E09F
:1004A0000E94130788E996E00E94E30680EA96E03E
:1004B0000E94610768EC71E0CE0187539F4F0E9454
:1004C000DF0486E0E0EEF6E0DE01A455BF4F0190C8
:1004D0000D928A95E1F78091D4069091D506A0916E
:1004E000D606B091D706CB53DF4F88839983AA8372
:1004F000BB83C55CD0408091D8069091D906A0916D
:10050000DA06B091DB06CF53DF4F88839983AA8345
:10051000BB83C15CD0408091DC069091DD06A09148
:10052000DE06B091DF06C354DF4F88839983AA8328
:10053000BB83CD5BD0408E0103541F4F9E012F53D0
:100540003F4FAE014B535F4FBE0164557F4F80EA72
:1005500096E00E94190868ED71E0CE0187539F4F25
:100560000E94DF0480918F05811111C08FE895E012
:100570000E94DA06892B59F0BE0167537F4F87E945
:1005800095E00E943A088FE895E00E94E30687E92B
:1005900095E090931107809310078091BE0690918B
:1005A000BF06A091C006B091C10666968CAF9DAF04
:1005B000AEAFBFAF66978091C2069091C3066896B2
:1005C0009FAF8EAF689748E150E064EC76E082E53B
:1005D00090E08C0F9D1F06960E94871CE0961FAE30
:1005E000E097CE55DF4F1882C25AD0408CE390E09E
:1005F000C056DF4F99838883C05AD0408091BE0691
:100600009091BF06892B9091C006892B9091C106CD
:10061000892B11E009F0F4C010E062E072E0CE0135
:1006200087539F4F0E94DF040E94A4040E94BB04D2
:1006300063E274EF83E00E94A70462E372E0CE01FC
:1006400087539F4F0E94DF04412C512C3201C12C53
:10065000D12C76018CE3282E312C01E080911007FB
:10066000909111070E94B60A112309F44AC0E09143
:100670001007F09111078281823009F442C00E9474
:10068000EE1B4B015C01DC01CB0184199509A60925
:10069000B70988389341A105B10598F1E0910E079B
:1006A000F0910F0780819181A281B38189839A8320
:1006B000AB83BC83848195819E838D83BF016A5FF8
:1006C0007F4F48E150E0CE0107960E94871C1E8EA6
:1006D00062961FAE629761963FAE2EAE619764E45C
:1006E00072E0CE0187539F4F0E94DF04BE016F5F0F
:1006F0007F4F80911007909111070E94C60B240133
:100700003501E0910E07F0910F0796A49920B1F101
:1007100016A680819181892B9281892B9381892BC7
:1007200010E061F180819181A281B38180933E05C7
:1007300090933F05A0934005B09341058481958136
:100740009093430580934205BF016A5F7F4F48E164
:1007500050E084E495E00E94871C10925B051092A3
:100760008E0530928D0520928C056EE375E08091A8
:100770001007909111070E94C60B192D8091150743
:10078000882399F0109215078091130781110DC0ED
:1007900080910001882349F0009314070093130708
:1007A00010921607289A10921207CE0187539F4F76
:1007B0000E94EC04882309F456C0CE0187539F4F52
:1007C0000E94F504E091ED068D3011F08A3039F584
:1007D000EE2359F3F0E0E251F94F108261E472E048
:1007E000CE0187539F4F0E94DF046EEE76E080912A
:1007F0000E0790910F070E94210D1092ED06D5CFA4
:100800006BEE71E0CE0187539F4F0E94DF04BE0163
:100810006E5A7F4F87E995E00E94C60B05CF88305E
:1008200011F08F3771F4EE2309F4BFCFE150E0935C
:10083000ED066AE572E0CE0187539F4F0E94DF0408
:10084000B4CFEF3108F0B1CF91E09E0F9093ED0659
:10085000F0E0E251F94F80831A8219828983BE0148
:100860006F5F7F4FE8CF80911307882381F08091DD
:100870001607863060F0109213071092120728981E
:100880006EE572E0CE0187539F4F0E94DF04809196
:1008900014078823D9F080911207811117C021E035
:1008A00030E042E752E067E872E0809110079091F3
:1008B00011070E942C0A882349F00093120764E76D
:1008C00072E0CE0187539F4F0E94DF04809113078F
:1008D000811102C0109214070E94EE1B9B01AC0113
:1008E0002C193D094E095F09253631054105510591
:1008F00008F4B4CEEFE3FCE93197F1F700C0000053
:100900006B017C01ABCE52985A9A813081F020F075
:10091000823089F0E89A089580916900826080931E
:100920006900809169008E7F80936900F3CF809188
:1009300069008360F9CF809169008D7F80936900A1
:10094000809169008160F0CF80E00C948304F8947A
:10095000E1E8F0E09081986090839081892B80831A
:100960007093890060938800EFE6F0E080818260F8
:10097000808378940895F89482E084BD83E085BDF7
:1009800089EF87BDEEE6F0E0808182608083789415
:1009900008958091C00085FFFCCF6093C600089544
:1009A000FB01460F571FE417F50741F08091C00087
:1009B00085FFFCCF81918093C600F5CF0895FB01A0
:1009C0008191BF01882339F09091C00095FFFCCF41
:1009D0008093C600F4CF089520915707909158074F
:1009E00081E0291301C080E008959091570780911C
:1009F0005807981769F0E0915707F0E0E95EF84F63
:100A00008081909157079F5F9F7390935707089538
:100A100080E008951F920F920FB60F9211242F932A
:100A20008F939F93EF93FF939091C6008091580707
:100A30008F5F8F7320915707281741F0E091580777
:100A4000F0E0E95EF84F908380935807FF91EF91B3
:100A50009F918F912F910F900FBE0F901F9018951F
:100A60001F920F920FB60F9211248F93EF93FF9363
:100A7000E1ECF0E080818F7D8083FF91EF918F9199
:100A80000F900FBE0F901F901895FC0120813181AF
:100A900042815381FB018081823081F493E0220FF7
:100AA000331F441F551F9A95D1F760E074E284EF1D
:100AB00090E00E941A1C8FEF820F089584E0220FAD
:100AC000331F441F551F8A95D1F7EFCF1F93CF9344
:100AD000DF93EB012AE932E0FC01318320831FB769
:100AE00017FF01C0F8948981823019F58091C00008
:100AF00082608093C000BE016F5F7F4FCE0102967F
:100B00000E9445058093C4001092C50088E9809337
:100B1000C10088819E81892B9F81892B9885892B93
:100B20008093C20017FF01C07894DF91CF911F918D
:100B300008958091C0008D7FDCCF20918307309194
:100B4000840781E0232B09F480E0089580918307D6
:100B500090918407892BF1F0E0917F07F091800755
:100B6000E159F84F808120917F07309180072F5FF6
:100B70003F4F2F7033273093800720937F072091BA
:100B800083073091840721503109309384072093E3
:100B90008307089580E00895FB0128EA32E0DC0134
:100BA00011963C932E9312964C9384B1886284B92B
:100BB00080819181892B806C9281892B9381892BF3
:100BC0009481892B8CBD0895FC011092860785B114
:100BD000928121E030E001C0220F9A95EAF720953A
:100BE000282325B98FE891E00197F1F700C00000B4
:100BF00080916D0790916E07892B21F1A091690773
:100C0000B0916A07A75AB84F8C912091690730912B
:100C10006A072F5F3F4F2F70332730936A07209367
:100C2000690720916D0730916E072150310930938B
:100C30006E0720936D07A8958EBD80918607882347
:100C4000E1F3D6CF95B1828121E030E001C0220FDF
:100C50008A95EAF7892F822B85B98FE891E0019771
:100C6000F1F700C000000895FC0184899589409740
:100C700099F0A289B389AE0FBF1F6C9384899589BF
:100C80000196958B848B8289938901968F70992721
:100C9000938B828B81E0089580E008951F920F92DC
:100CA0000FB60F9211242F933F934F935F936F933F
:100CB0007F938F939F93AF93BF93EF93FF930DB465
:100CC00006FE19C08EB5809385071092850781E0D6
:100CD00080938607FF91EF91BF91AF919F918F9184
:100CE0007F916F915F914F913F912F910F900FBE28
:100CF0000F901F9018956EB58FE697E00E9434060E
:100D0000E6CFCF93DF93EC0189E597E00E943406AC
:100D1000CE01DF91CF910C94E405EF92FF920F93F7
:100D20001F93CF93DF937C01EB018B01040F151F01
:100D3000C017D10731F0699189E597E00E94340628
:100D4000F7CFC701DF91CF911F910F91FF90EF90E7
:100D50000C94E4050F931F93CF93DF938C01EB0169
:100D60006991662329F089E597E00E943406F8CF5F
:100D7000C801DF91CF911F910F910C94E40580E1A0
:100D8000EFE6F7E0DF01982F1D929A95E9F7118AB7
:100D9000108A138A128A158A148AE9E5F7E0DF01BE
:100DA0001D928A95E9F7118A108A138A128A158A88
:100DB000148A0895FC0181E090E02081222311F043
:100DC00090E080E0089521E0FC01208308958FEFFA
:100DD0008EBD0DB407FEFDCF8EB508958EBD0DB44A
:100DE00007FEFDCF8EB50895680F791F3FEF861778
:100DF000970749F03EBD0DB407FEFDCF2EB5FC01AF
:100E00002193CF01F4CF0895680F791F86179707B4
:100E100049F0FC012191CF012EBD0DB407FEFDCF9D
:100E20002EB5F4CF08950F931F93CF93DF9300D087
:100E300000D000D0CDB7DEB7FC0109831A832B8325
:100E40003C834D835E8349815A812B813C818D8116
:100E50009E817183608313821282148216821582AE
:100E60001086178212861186F093A007E0939F07E1
:100E70004115510511F0568345832115310511F0B7
:100E800030872783009711F09287818726960FB6C7
:100E9000F894DEBF0FBECDBFDF91CF911F910F91B0
:100EA000089570E060E090E080E00E94C41A2FEFA7
:100EB00081EE94E0215080409040E1F700C00000B6
:100EC00008950F931F93CF93DF93CDB7DEB760974D
:100ED0000FB6F894DEBF0FBECDBFDC0114962C9187
:100EE000211138C08C01FC01618572858781908554
:100EF0000E945E186EEE76E087EE96E00E9479180A
:100F000064E077E084EF96E00E949D18C8010E949B
:100F1000510780E1ECE2F1E0DE01119601900D92C3
:100F20008A95E1F7BE016F5F7F4F81E090E00E94FC
:100F3000C41A8F3FD1F4D80112968D919C910097DD
:100F400049F0DC01ED91FC910480F581E02D62EB2C
:100F500072E0099560960FB6F894DEBF0FBECDBF64
:100F6000DF91CF911F910F91089581E0F801848363
:100F7000F1CFCF93DF93EB0187E897E00E949A1BB4
:100F800086E0FE01A7E8B7E001900D928A95E1F7AF
:100F900087E897E0DF91CF910C945A1BCF93DF93B2
:100FA000EB0187E897E00E949A1B88819981AA81CA
:100FB000BB8180938D0790938E07A0938F07B0938A
:100FC000900787E897E0DF91CF910C945A1BCF935D
:100FD000DF93EB0187E897E00E949A1B8881998153
:100FE000AA81BB818093910790939207A093930766
:100FF000B093940787E897E0DF91CF910C945A1B48
:10100000CF93DF93EB0187E897E00E949A1B8881DA
:101010009981AA81BB818093950790939607A093AD
:101020009707B093980787E897E0DF91CF910C94EA
:101030005A1BCF92DF92EF92FF920F931F93CF93A1
:10104000DF93EC016A0179010E94B907B601CE0174
:101050000E94CE07B701CE010E94E707B801CE017A
:10106000DF91CF911F910F91FF90EF90DF90CF9084
:101070000C940008DC0111967C936E9312961C92DE
:10108000FC01E950FF4F10821182128213823496C4
:101090001082118212821382349621E030E0318373
:1010A0002083EC5FF10921E5DF011D922A95E9F724
:1010B000EF5AFF4F20E4DF01322F1D923A95E9F7F6
:1010C000E05CFF4FDF011D922A95E9F7EE59FF4FD3
:1010D00010828C509F4FFC0111821082089582E093
:1010E0000E94D81582E00C9480130F931F938A01FD
:1010F00082E00E94591630E020E041E00617170711
:101100002807390709F040E0842F1F910F910895B7
:101110000F931F93CF93DF938B01EA0182E00E942C
:101120001D12B0E0A0E00097A105B105C1F0AE012D
:1011300070E060E084179507A607B7070CF4AC01D0
:10114000B80182E00E94611797FF03C060E070E081
:10115000CB01CB01DF91CF911F910F91089590E0CA
:1011600080E0F8CF68E473E080E090E00E94FC0F3C
:1011700091E0873109F090E0892F0895AF92BF92F6
:10118000CF92DF92EF92FF920F931F93CF93DF9353
:10119000EC017C0124E5E20EF11C80E1F701808383
:1011A000BE01675F7F4FFB0101900020E9F7CF018F
:1011B0000197861B970BFE01ED5AFF4F108111110D
:1011C00099C00C96FE01EB5AFF4F8F7780833196C2
:1011D000108284E0319680839DE43196908391E57E
:1011E0003196908394E53196908331969083319631
:1011F000808382EC111101C082E0FE01E35AFF4FAF
:1012000080833C97808191813D9690833196808345
:10121000FB0101900020E9F731975F01A61AB70A98
:10122000FE01E05AFF4FB0823196A082A501CE01A7
:101230008E599F4F0E945C1CA501425F5F4F112396
:1012400009F44AC0BE016F5D7F4FFB010190002091
:10125000E9F731976F01C61AD70A4C0F5D1FFA01E3
:10126000EC5AFF4FD0828501005F1F4FFE01EA0D4F
:10127000FB1DED59FF4FC082C5018C599F4FA60140
:101280008C0F9D1F0E945C1CC00ED11EBE01675CAE
:101290007F4FFB0101900020E9F731978F01061B7A
:1012A000170BCE018C0D9D1DFC01EC5AFF4F1083D6
:1012B0005601F2E0AF0EB11C8B5A9F4FFC01008328
:1012C000F6E5CF0ED11CA801CE018C0D9D1D0E940C
:1012D0005C1CA8014A0D5B1DB701CE01DF91CF91C7
:1012E0001F910F91FF90EF90DF90CF90BF90AF9044
:1012F0000C947508DE019196FD0101900020E9F73C
:1013000031979F012A1B3B0B5896FD01019000204D
:10131000E9F73197EA1BFB0B4096820F931F8E0F64
:101320009F1F50CFCF93DF93EC01BC016C5A7F4FCE
:1013300080ECFB0180833196108242E050E0CE01C8
:101340000E947508882341F00E94EE1BC550DF4FB4
:10135000688379838A839B83DF91CF9108959F92DD
:10136000AF92BF92CF92DF92EF92FF920F931F93B3
:10137000CF93DF93EC018C010C561F4F40E450E0FB
:10138000B8010E9488086C01181619060CF04BC0B1
:101390000E94EE1BFE01E950FF4F60837183828340
:1013A0009383F8018081807F8033E9F532966081F4
:1013B00071817627672776275E01F8E9AF0EB11CA9
:1013C0007B0184E0E80EF11CFE01EE0DFF1DEC56E2
:1013D000FF4F9080108268567F4F8E01060F171FB7
:1013E000CE18DF08FE01EA50FF4F80818823A1F06C
:1013F000B501CE018C529F4F0E94701C892B61F465
:10140000FE01EC50FF4F0190F081E02D309721F06C
:10141000A601B801C5010995EC18FD08CE0DDF1D28
:10142000CC56DF4F9882DF91CF911F910F91FF90A3
:10143000EF90DF90CF90BF90AF909F900895DC0128
:101440008D919C91009739F0DC01ED91FC91048025
:10145000F581E02D099408958F929F92AF92BF92EB
:10146000CF92DF92EF92FF920F931F93CF93DF9370
:10147000DC011296EC91E23079F010E0812FDF91DF
:10148000CF911F910F91FF90EF90DF90CF90BF9081
:10149000AF909F908F90089579016A01EC014C0103
:1014A000B4E58B0E911C80E3F4018083FB01019075
:1014B0000020E9F731978F01061B170BC901800F38
:1014C000911F9C012C5F3F4F2134310530F066ECB9
:1014D00072E0CE010E941F0AD0CF0296FE01EB5AA5
:1014E000FF4F80389105C0F5808382E090E09E0137
:1014F000280F391FF901EC5AFF4F10835C01F2E00D
:10150000AF0EB11C2B5A3F4FD9010C938A5A9F4FF3
:10151000A8018C0F9D1F0E945C1C0A0D1B1DC80199
:101520008C5A9F4FA701B6018C0F9D1F0E945C1C17
:10153000A701400F511FB401CE010E947508182F5A
:10154000882309F49ACF0E94EE1BC950DF4F6883AD
:1015500079838A839B8392CF806880838FE7FE01A3
:10156000EA5AFF4F808383E090E0C1CFCF92DF92B1
:10157000EF92FF920F931F93CF93DF93DC011296AC
:101580002C91223009F05CC0EC010E94B20861EE9F
:1015900072E0882309F44FC0CE010E94AF090E9477
:1015A000EE1BFE01E950FF4F008111812281338142
:1015B0006B017C01C01AD10AE20AF30A3496008159
:1015C000118122813381AB01BC01401B510B620BA5
:1015D000730B8E010F5A1F4FD801ED91FC9128EB30
:1015E0003BE0E29FC001E39F900DF29F900D11241C
:1015F0009695879596958795B0E0A0E08417950716
:10160000A607B70718F4CE010E949209F80140819D
:1016100051812CED35E0429FC001439F900D529FB8
:10162000900D1124B0E0A0E08C159D05AE05BF051E
:1016300038F46EEF72E0CE010E941F0A83E08A83C5
:10164000DF91CF911F910F91FF90EF90DF90CF909E
:1016500008951F93CF93DF93EC0182E00E948013E3
:1016600012E360E07EE280E090E00E94FC0F80FDEB
:1016700028C0A89588EE93E000000197E9F7115083
:1016800081F769E173E0CE010E941F0A31C0A8957D
:1016900068E473E080E090E00E94FC0F873161F025
:1016A000882331F18C3121F188EE93E0000001971D
:1016B000E9F7C15061F71CC081E0DF91CF911F9124
:1016C000089520E050E040E061E082E00E94F813DD
:1016D000823071F44F815885BE016D5F7F4F82E08B
:1016E0000E94FB14C2E3813091F282E00E948013D9
:1016F00080E0E3CF8F929F92AF92BF92EF92FF92E2
:101700000F931F93CF93DF93EC010E94EE1B4B01CD
:101710005C018E010C561F4F7E0125E9E20EF11C83
:101720000E94EE1B681979098A099B096838734180
:1017300081059105D0F440E450E0B801CE010E944B
:10174000880804976CF3F8018081803249F7F7012B
:101750008081823029F7FE01E956FF4F80816AE2DD
:1017600073E0811104C081E006C063E473E0CE0140
:101770000E941F0A80E0DF91CF911F910F91FF908F
:10178000EF90BF90AF909F908F9008950F931F930D
:10179000CF93DF93EC018B016BEE71E00E941F0A87
:1017A000DE01139681E5F80101900D928A95E1F72B
:1017B00081E08A83CE010E94290B182F81110DC070
:1017C0006CE573E0CE010E941F0A83E08A83812FBB
:1017D000DF91CF911F910F910895CE010E94BE0815
:1017E000182F6BE773E0882341F0CE010E947A0B3B
:1017F000182F811109C063E973E0CE010E941F0A0E
:10180000CE010E946F08E1CF6BEA73E0CE010E9427
:101810001F0A82E08A830E94EE1BFE01E950FF4FFF
:101820006083718382839383C550DF4F688379839C
:101830008A839B83CCCF4CE250E00C94961C4CE204
:1018400050E00C94A61CCF93DF93EC011882198210
:101850001A821B828BE597E09D838C834FE050E0DA
:101860006EEB73E0CE0106960E94871C1D8A30EC59
:101870003E8B28EA2F8B81E0888F94E6998F9FEF2B
:101880009A8F9B8F9C8F1D8E3E8F2F8F88A389A34D
:101890001AA288E08BA38CED8CA38BEA8DA38DEC30
:1018A0008EA38FEE8FA38EEF9AECAFEEBEEB88A7E0
:1018B00099A7AAA7BBA7DF91CF910895FC0175A7AF
:1018C00064A716A60C94230CCF936115710519F427
:1018D00080E0CF91089541155105D1F3FB0190E0CF
:1018E00080E020E0CAE03191332301F160ED630F25
:1018F0006A3080F4C89FB001C99F700D1124CB01DC
:10190000C097830F911D37FD9A958F3F910559F32D
:1019100050F3DECF3E3251F42330D0F6DA01A20F7D
:10192000B11D8C932F5F90E080E0DDCF233081F6F6
:10193000FA01838381E0CDCFDC019C968D919C914F
:10194000009739F0DC01ED91FC910480F581E02DE8
:10195000099408950F931F93CF93DF93CDB7DEB70C
:10196000AC970FB6F894DEBF0FBECDBF8C0160E818
:1019700070E0CE0101960E941B0C89A59AA5ABA52B
:10198000BCA58E3F9A4CAF4EBE4BE1F48D819E813B
:10199000892BC1F08CE2FE013196D80101900D92A5
:1019A0008A95E1F768EC73E0C8010E949C0CAC9644
:1019B0000FB6F894DEBF0FBECDBFDF91CF911F9160
:1019C0000F91089570E060E0CE0101960E941B0C1B
:1019D00089A59AA5ABA5BCA58E3F9A4CAF4EBE4B30
:1019E000A1F48D819E81892B81F08CE2FE013196DC
:1019F000D80101900D928A95E1F760E870E0C80186
:101A00000E941F0C67ED73E0CFCF61EF73E0CCCF86
:101A1000CF93DF93EC018EEF9AECAFEEBEEB88A78D
:101A200099A7AAA7BBA760E870E0CE010E941F0C8F
:101A300081E08EA761E174E0CE01DF91CF910C943B
:101A40009C0C8F929F92AF92BF92CF92DF92EF92B7
:101A5000FF920F931F93CF93DF93CDB7DEB72F97EE
:101A60000FB6F894DEBF0FBECDBF6115710509F446
:101A7000C1C2DC019C962D913C91232B09F4BAC282
:101A80007B016F5F7F4FF70120812032C9F38C010A
:101A900044E050E06FE174E0C7010E94791C892B9B
:101AA000C1F4B8E6EB2EB0E0FB2EF7016491FFEF36
:101AB000EF1AFF0A662309F486C2D8019C968D911D
:101AC0009C91DC01ED91FC910190F081E02D099554
:101AD000ECCF44E050E064E274E0C7010E94791C5E
:101AE0006C01892B09F08CC169E274E0C8010E9485
:101AF0009C0C5801B6E1AB0EB11CF12CE12CFAE0C4
:101B00009F2EA4E68A2EF50181915F01843608F4A8
:101B10002EC1682D0E94FA1B805D8C87892F692D4C
:101B20000E94FA1B805D8D87892FE2E0ACE0B0E077
:101B3000AC0FBD1FAE0FB11D805D8C93EF5F8CE0CD
:101B400090E08C0F9D1F8E0F911DFC011082D8011B
:101B50009C968D919C91DC01ED91FC910480F58126
:101B6000E02DBE01645F7F4F0995B3E0EB16F104F1
:101B700061F0F80184A595A5DC01ED91FC9104804C
:101B8000F581E02D65E374E00995BFEFEB1AFB0AE0
:101B9000E4E0EE16F10409F0B6CF67E374E0C801A3
:101BA0000E949C0C5801FEE1AF0EB11CF12CE12CFF
:101BB0007AE0972EE4E68E2ED5018D915D01843674
:101BC00008F4E1C0682D0E94FA1B805D8C87892F84
:101BD000692D0E94FA1B805D8D87892FE2E0ACE0C1
:101BE000B0E0AC0FBD1FAE0FB11D805D8C93EF5FF9
:101BF0008CE090E08C0F9D1F8E0F911DFC011082D8
:101C0000D8019C968D919C91DC01ED91FC91048012
:101C1000F581E02DBE01645F7F4F0995B3E0EB16BF
:101C2000F10461F0F80184A595A5DC01ED91FC912A
:101C30000480F581E02D65E374E00995BFEFEB1AB0
:101C4000FB0AE4E0EE16F10409F0B6CF63E474E0B9
:101C5000C8010E949C0C78015AE0B52E64E6A62EBD
:101C6000D7018D917D01843608F499C06A2D0E94B8
:101C7000FA1B805D8C87892F6B2D0E94FA1B805D7B
:101C80008D87892FE2E0ACE0B0E0AC0FBD1FAE0F56
:101C9000B11D805D8C93EF5F8CE090E08C0F9D1FF9
:101CA0008E0F911DFC011082D8019C968D919C9104
:101CB000DC01ED91FC910480F581E02DBE01645FB3
:101CC0007F4F0995B3E0CB16D10461F0F80184A5EC
:101CD00095A5DC01ED91FC910480F581E02D65E393
:101CE00074E00995BFEFCB1ADB0AE4E0CE16D1040D
:101CF00009F0B6CF6EE474E0C8010E949C0CD801D4
:101D000014968D919C91009709F055C080E38983CA
:101D1000E1E081E090E08C0F9D1F8E0F911DFC0192
:101D20001082D8019C968D919C91DC01ED91FC91E3
:101D30000480F581E02DBE016F5F7F4F099560E55E
:101D400074E0C8010E949C0CF80184A595A5B80117
:101D50006A5F7F4FDC01ED91FC910480F581E02DFD
:101D6000099561E472E0C8010E949C0C2CC1E0E07E
:101D70008A3008F4DBCE692D0E94FA1B805D8C87C7
:101D8000892FE1E0D3CEE0E08A3008F428CF692D36
:101D90000E94FA1B805D8C87892FE1E020CFE0E074
:101DA0008A3008F470CF6B2D0E94FA1B805D8C87FF
:101DB000892FE1E068CF9E01295F3F4FE0E0790184
:101DC0004AE0C42ED12CEF5FB6010E94061C805D54
:101DD000D9018D939D01CB01009711F0E53099F762
:101DE000AE014F5F5F4F8E2F81509701280F311D3D
:101DF000D9019C91DA019D93AD018111F5CF89CF75
:101E000043E050E06EE574E0C7010E94791C892B25
:101E100089F4B7016D5F7F4FA8014A5E5F4FC8012B
:101E20000E94640CF82E62E674E081118AC062E7B9
:101E300074E099CF43E050E066E874E0C7010E9487
:101E4000791C892B89F4B7016D5F7F4FA801425E31
:101E50005F4FC8010E94640CF82E6AE874E081119B
:101E600070C068E974E07FCF43E050E061EB74E05C
:101E7000C7010E94791C892B09F07AC0B3E0EB0EF0
:101E8000F11C5701EFEFEE1AFE0AD5018C9180325A
:101E9000C1F36AE370E0C5010E94651C6C01892BE7
:101EA00041F460E270E0C5010E94651C6C01892B61
:101EB000A1F1A801B501C8010E94640CF82E882385
:101EC00061F1F601319649F1DF018D91803241F1E6
:101ED00080538A3010F520E030E0A901DF01ED9059
:101EE0006D0180ED8E0D8A30E8F4AAE0B0E00E942A
:101EF000421C2E2DEE0C330B20533109032E000C07
:101F0000440B550B260F371F481F591FF60121158B
:101F10003105B1E04B07510508F362EC74E023CFC3
:101F2000FD01D2CF81918032E9F38111F6CF2115E5
:101F300031054105510589F3F8013583248365EBAB
:101F400074E0C8010E949C0C8F2D2F960FB6F89458
:101F5000DEBF0FBECDBFDF91CF911F910F91FF90DC
:101F6000EF90DF90CF90BF90AF909F908F900895AB
:101F700043E050E061EE74E0C7010E94791C892BB8
:101F8000B1F4D70113968C9165EF74E0882309F4BE
:101F9000EACEB7016D5F7F4F4FE050E0C801069673
:101FA0000E94871CF801158A65EE74E0DCCE44E0DF
:101FB00050E069E075E0C7010E94791C892B31F47B
:101FC000C8010E94080DFF24F394BECF45E050E005
:101FD0006EE075E0C7010E94791C892B31F4C801BD
:101FE0000E94230C64E175E0BECE6CE275E0C8018E
:101FF0000E949C0CF12CA8CF8F929F92AF92BF921F
:10200000CF92DF92EF92FF92CF93DF9300D01F9297
:10201000CDB7DEB76B017C01E0910D01F0910E01AF
:102020000995E0911101F09112010995C701AA27C4
:10203000BB278D2C9E2CAF2CBB24209119013091F5
:102040001A01232B31F0E0911B01F0911C01309714
:1020500081F5E0911701F09118010995E0911701C0
:10206000F0911801882D0995E0911701F091180160
:102070008C2D0995E0911501F09116010995F82E26
:10208000E0911301F09114010995E0910F01F09195
:10209000100109958F2D0F900F900F90DF91CF9128
:1020A000FF90EF90DF90CF90BF90AF909F908F9078
:1020B000089589838A82CB8263E070E0CE01019625
:1020C0000995D8CF8F929F92AF92BF92CF92DF9215
:1020D000EF92FF921F93CF93DF9300D000D0CDB744
:1020E000DEB76B017C01142FE0910D01F0910E0120
:1020F0000995E0911101F091120109956894C2F8D7
:10210000E0911B01F0911C01C701AA27BB278D2C70
:102110009E2CAF2CBB24309789F5E0911701F091EC
:1021200018010995E0911701F0911801882D099582
:10213000E0911701F09118018C2D0995E09117019C
:10214000F0911801812F0995E0911301F09114018C
:102150000995E0910F01F091100109950F900F90F2
:102160000F900F90DF91CF911F91FF90EF90DF9034
:10217000CF90BF90AF909F908F90089589838A826F
:10218000CB821C8364E070E0CE0101960995DCCF20
:102190004F925F926F927F928F929F92AF92BF9277
:1021A000CF92DF92EF92FF920F931F93CF93DF9323
:1021B00000D01F92CDB7DEB74B015C016A017901F7
:1021C000E0910D01F0910E010995E0911101F0915E
:1021D00012010995C501AA27BB27492C5A2C6B2C43
:1021E00077242091190130911A01232B31F0E091CD
:1021F0001B01F0911C013097F1F5E0911701F0916E
:1022000018010995E0911701F0911801842D0995A5
:10221000E0911701F0911801882D09958601EC0CC9
:10222000FD1C0E151F05F1F4E0911301F09114014E
:102230000995E0910F01F091100109950F900F9011
:102240000F90DF91CF911F910F91FF90EF90DF9052
:10225000CF90BF90AF909F908F907F906F905F9046
:102260004F900895E0911501F09116010995F8013C
:1022700081938F01D6CF89834A828B8263E070E09D
:10228000CE0101960995E0911901F0911A01B7016B
:10229000C6010995C9CF4F925F926F927F92AF921C
:1022A000BF92CF92DF92EF92FF920F931F93CF9343
:1022B000DF9300D01F92CDB7DEB76B017C015A01CE
:1022C0008901E0910D01F0910E010995E091110154
:1022D000F091120109956894C2F8E0911B01F09108
:1022E0001C01C701AA27BB274D2C5E2C6F2C77241D
:1022F0003097E1F5E0911701F09118010995E0910F
:102300001701F0911801842D0995E0911701F091C2
:1023100018018C2D099575010A0D1B1DE016F1069B
:10232000E1F4E0911301F09114010995E0910F019E
:10233000F091100109950F900F900F90DF91CF91C0
:102340001F910F91FF90EF90DF90CF90BF90AF90D3
:102350007F906F905F904F900895E0911701F091FA
:102360001801D7018D917D010995D8CF89834A82C3
:10237000CB8263E070E0CE0101960995E0911B01EC
:10238000F0911C01B801C5010995CBCF8F929F92A6
:10239000AF92BF92CF92DF92EF92FF920F931F9373
:1023A000CF93DF9394E0899F600111248FEFC81AC7
:1023B000D80A23E0CC0CDD1C2A95E1F7460190EE0B
:1023C000991A092C000CAA08BB088FEDD81A0D2CFD
:1023D000000CEE08FF08D0E0C0E0C501B4010E9487
:1023E000FC0F082F10E0102F0027C701B6010E9434
:1023F000FC0F080F111D0115110571F0C501B40185
:102400000E94FC0FC82FD0E0DC2FCC27C701B601FB
:102410000E94FC0FC80FD11DC017D107F1F6CE01E5
:10242000DF91CF911F910F91FF90EF90DF90CF90B0
:10243000BF90AF909F908F9008958F929F92AF9290
:10244000BF92CF92DF92EF92FF920F931F93CF93A1
:10245000DF9394E0899F600111248FEFC81AD80A96
:1024600023E0CC0CDD1C2A95E1F746019AED991A80
:10247000092C000CAA08BB0889EDD81A0D2C000CF9
:10248000EE08FF08D0E0C0E0C501B4010E94FC0FD7
:10249000082F10E0102F0027C701B6010E94FC0F83
:1024A000080F111D0115110571F0C501B4010E943D
:1024B000FC0FC82FD0E0DC2FCC27C701B6010E944B
:1024C000FC0FC80FD11DC017D107F1F6CE01DF9167
:1024D000CF911F910F91FF90EF90DF90CF90BF9021
:1024E000AF909F908F9008954F925F926F927F92DE
:1024F0008F929F92AF92BF92CF92DF92EF92FF9214
:102500000F931F93CF93DF934115510509F461C0D9
:102510008A014B0194E0899FE00111246E018FEF45
:10252000C81AD80A83E0CC0CDD1C8A95E1F7260195
:102530009CED591A052C000C66087708C301B201FE
:102540000E94FC0FA82E8BEDD81A0D2C000CEE0863
:10255000FF08C701B6010E94FC0FB12CBA2CAA24B7
:10256000A80EB11CBE016E5F7F4F23E0660F771F80
:102570002A95E1F7072E000C880B990B950150E086
:1025800040E0542F432F322F2227620F731F841FE6
:10259000951F9801A4010E944B110A0D1B1D412F8C
:1025A000C301B2010E946210402FC701B601DF9142
:1025B000CF911F910F91FF90EF90DF90CF90BF9040
:1025C000AF909F908F907F906F905F904F900C9402
:1025D0006210DF91CF911F910F91FF90EF90DF90EC
:1025E000CF90BF90AF909F908F907F906F905F90B3
:1025F0004F9008954F925F926F927F928F929F9229
:10260000AF92BF92CF92DF92EF92FF920F931F9300
:10261000CF93DF934115510509F461C08A014B0145
:1026200094E0899FE00111246E018FEFC81AD80A47
:1026300083E0CC0CDD1C8A95E1F7260198ED591A50
:10264000052C000C66087708C301B2010E94FC0F3C
:10265000A82E87EDD81A0D2C000CEE08FF08C70134
:10266000B6010E94FC0FB12CBA2CAA24A80EB11CF2
:10267000BE016D5F7F4F23E0660F771F2A95E1F75C
:10268000072E000C880B990B950150E040E0542F69
:10269000432F322F2227620F731F841F951F98012B
:1026A000A4010E94C8100A0D1B1D412FC301B201D5
:1026B0000E946210402FC701B601DF91CF911F9198
:1026C0000F91FF90EF90DF90CF90BF90AF909F90D1
:1026D0008F907F906F905F904F900C946210DF917D
:1026E000CF911F910F91FF90EF90DF90CF90BF900F
:1026F000AF909F908F907F906F905F904F900895D4
:102700008F929F92AF92BF92CF92DF92EF92FF9201
:102710000F931F93CF93DF93893008F067C0F82E93
:10272000082F10E0E80195E0CC0FDD1F9A95E1F746
:1027300028964E019394092C000CAA08BB0840E18E
:10274000C501B4010E946210C501B4010E94FC0FD2
:102750008111FACFBE017E5F072E000C880B990B0A
:102760004FE10E94621081E090E002C0880F991F43
:10277000FA94E2F7809590952091BB073091BC07C1
:10278000282339233093BC072093BB072091B90736
:102790003091BA07822393239093BA078093B907A5
:1027A000F801EE0FFF1FE755F84F11821082F80174
:1027B000EF55F84F10826E018DEFD81A0D2C000CDA
:1027C000EE08FF08C701B6010E94FC0F8111FACF85
:1027D00081E0DF91CF911F910F91FF90EF90DF90FB
:1027E000CF90BF90AF909F908F9008958FEFF1CFD3
:1027F0004F925F926F927F928F929F92AF92BF9211
:10280000CF92DF92EF92FF920F931F93CF93DF93BC
:1028100000D000D0CDB7DEB7182F762E4A01022F98
:102820008FEF1930F0F421E0621739F0621718F0D9
:1028300084E0861758F58BEF14C024E030E0AE0139
:102840004F5F5F4F60E07FE080E090E00E94C81043
:1028500089819A81AB81BC81892B8A2B8B2BB1F426
:102860008DEF0F900F900F900F90DF91CF911F91F0
:102870000F91FF90EF90DF90CF90BF90AF909F901F
:102880008F907F906F905F904F90089502FD9DC054
:10289000002341F091E0791609F493C022E072160A
:1028A00009F495C0812F0E948013E12EF12C67015D
:1028B00025E0CC0CDD1C2A95E1F7C60108966C01D9
:1028C000402F407F4729BC01990F880B990B0E942C
:1028D00062108114910479F48090010190900201BA
:1028E000C4010196803F2FEF920709F479C09093BD
:1028F000020180930101B6017C5F072E000C880B5A
:10290000990B492D0E946210B6017B5F072E000CC7
:10291000880B990B482D0E94621026015394052CB8
:10292000000C6608770841E0C301B2010E94621002
:10293000C301B2010E94FC0F8111FACF81E090E047
:10294000012E02C0880F991F0A94E2F78095909596
:102950002091BB073091BC072823392300FBAA2410
:10296000A0F8B12C012E02C0AA0CBB1C0A94E2F7FD
:10297000A22AB32AB092BC07A092BB072091B90744
:102980003091BA07822393239093BA078093B907B3
:10299000F701EE0FFF1FE755F84F11821082F70184
:1029A000EF55F84F10829DEFD91A0D2C000CEE0850
:1029B000FF08C701B6010E94FC0F8823D1F3812FC5
:1029C00050CF802F817209F06DCF8AEF4ACF05FF7B
:1029D00002C007FFFACF04FF65CF07FFF6CF62CF33
:1029E00080E090EC90930201809301019FEE892E8C
:1029F00099249A9480CF7F928F929F92AF92BF92A8
:102A0000CF92DF92EF92FF920F931F93CF93DF93BA
:102A1000893008F0C3C06A017B01782E24E0829FD0
:102A2000E0011124219653E0CC0FDD1F5A95E1F708
:102A3000BE010D2E000C880B990B0E94FC0F8F70AD
:102A4000813009F0ADC04E018DEF981A092C000CB1
:102A5000AA08BB08C501B4010E94FC0F833109F02C
:102A6000A1C0F701008110E030E020E0322F212FDB
:102A7000102F00278181080F111D211D311D322FBC
:102A8000212F102F00278281080F111D211D311DBC
:102A9000322F212F102F0027838190E0B0E0A0E09B
:102AA0000197A109B109800F911FA21FB31F8E3F8B
:102AB0009F4FAF4FBF4F08F077C085EFC114D104CF
:102AC00009F456C0BE01745F072E000C880B990BE9
:102AD00024E030E0A7010E944B11BE01705F072E79
:102AE000000C880B990B4D2D0E946210BE017F5E79
:102AF000072E000C880B990B4C2D0E9462106E0162
:102B0000D3940D2C000CEE08FF0844E0C701B60179
:102B10000E946210C701B6010E94FC0F8111FACF1A
:102B200081E090E002C0880F991F7A94E2F720912B
:102B3000BB073091BC0782239323892BB9F5DE5F55
:102B40006E01DD0FEE08FF08C501B4010E94FC0F05
:102B5000873111F481E00CC0C701B6010E94FC0F5F
:102B600083FF14C048E0C701B6010E94621083EFE2
:102B7000DF91CF911F910F91FF90EF90DF90CF9059
:102B8000BF90AF909F908F907F900895C501B40142
:102B90000E94FC0F8111D8CF8CEFEACF8FEFE8CFE6
:102BA0008BEFE6CF8DEFE4CF84EFE2CF80E0E0CF94
:102BB0008F929F92AF92BF92CF92DF92EF92FF924D
:102BC000CF93893008F06FC0C82F84E0C89F6001A0
:102BD00011248FEFC81AD80A83E0CC0CDD1C8A952B
:102BE000E1F7B6010D2C000C880B990B0E94FC0F2D
:102BF0008F70813009F059C046019394092C000C64
:102C0000AA08BB0848E0C501B4010E946210C501D2
:102C1000B4010E94FC0F8111FACF81E090E00C2EEC
:102C200002C0880F991F0A94E2F7AC0140955095B5
:102C30002091B9073091BA07242335233093BA077E
:102C40002093B9072091BB073091BC0782239323BF
:102C5000892B69F546018DEF981A092C000CAA08FA
:102C6000BB088EEFD81A0D2C000CEE08FF08C5012A
:102C7000B4010E94FC0F811102C081E00AC0C701AB
:102C8000B6010E94FC0F83FFF2CF8C2F0E948013AD
:102C900083EFCF91FF90EF90DF90CF90BF90AF90F8
:102CA0009F908F9008958FEFF4CF8BEFF2CF80E05D
:102CB000F0CF2F923F924F925F927F928F929F928E
:102CC000AF92BF92CF92DF92EF92FF920F931F933A
:102CD000CF93DF9300D000D0CDB7DEB7893008F0B6
:102CE000E7C06A017A836983782E24E0829F80019D
:102CF00011240F5F1F4F83E0000F111F8A95E1F72A
:102D0000B801012E000C880B990B0E94FC0F8F70EC
:102D1000813009F0D1C062EF7FEF8FEF9FEFC114D8
:102D2000D10409F46CC048013DEF931A092C000C42
:102D3000AA08BB08C501B4010E94FC0F873119F035
:102D40008C3109F052C081E090E07C01072C02C078
:102D5000EE0CFF1C0A94E2F78091B9079091BA0734
:102D60008E219F21892BF9F018018EEF381A032C40
:102D7000000C44085508C201B1010E94FC0F84FFF9
:102D800039C040E1C201B1010E9462108091B907CF
:102D90009091BA07970120953095822393239093C1
:102DA000BA078093B907B801715E072E000C880B33
:102DB000990B0E94FC0F1B82880F880F8C832B813C
:102DC0003C81C216D30610F4DC82CB82872D0E9490
:102DD000C6116C01C501B4010E94FC0F873169F175
:102DE0008C3159F1872D0E94801369EF7FEF8FEFAF
:102DF0009FEF05C083FD19C060E070E0CB010F902C
:102E00000F900F900F90DF91CF911F910F91FF9036
:102E1000EF90DF90CF90BF90AF909F908F907F907A
:102E20005F904F903F902F900895872D0E948013C0
:102E300063EF7FEF8FEF9FEFE2CF8091BB07909121
:102E4000BC078E219F21892B61F18B819C81C81643
:102E5000D90690F24B815C8169817A81872D0E942D
:102E6000741213954801110FAA08BB0840E2C5016E
:102E7000B4010E946210C501B4010E94FC0F8111CF
:102E8000FACF8091B9079091BA07E82AF92AF0920F
:102E9000BA07E092B9072B813C81B90190E080E04C
:102EA000AECF2B813C81C216D30608F48FCFD2CF90
:102EB0006FEF7FEFCB01A3CF6BEF7FEF8FEF9FEF34
:102EC0009ECF2F923F924F925F926F927F928F92FE
:102ED0009F92AF92BF92CF92DF92EF92FF920F93A9
:102EE0001F93CF93DF9300D000D000D0CDB7DEB7D3
:102EF000893008F0CBC03A017C836B83382E24E004
:102F0000829F800111240F5F1F4F33E0000F111FBC
:102F10003A95E1F7B801012E000C880B990B0E943D
:102F2000FC0F8F70813009F0B5C062EF7FEF8FEF3B
:102F30009FEF6114710409F44BC0B801725E072E53
:102F4000000C880B990B0E94FC0F282E81E090E06A
:102F50009C01032C02C0220F331F0A94E2F73A832C
:102F6000298368013DEFD31A0D2C000CEE08FF08F1
:102F7000480181EE981A092C000CAA08BB08832D81
:102F80000E941D129E838D83C701B6010E94FC0F13
:102F90008731B9F18C31A9F42D813E81232B09F0C1
:102FA00047C0832D0E94C6112C01C501B4010E94A7
:102FB000FC0F90E0982F8827990F990F4816590613
:102FC00001F5832D0E94801369EF7FEF8FEF9FEF54
:102FD00026960FB6F894DEBF0FBECDBFDF91CF911E
:102FE0001F910F91FF90EF90DF90CF90BF90AF9027
:102FF0009F908F907F906F905F904F903F902F9019
:1030000008958091BB079091BC0729813A81822362
:103010009323892B41F08D819E81892B49F460E0B7
:1030200070E0CB01D5CF2D813E81232B09F4A7CFB2
:1030300080E0922D990F990F6816790608F4C30164
:103040002D813E813A8329838217930710F49A8356
:10305000898349815A816B817C81832D0E94FA1278
:1030600013956801110FEE08FF0840E4C701B6018F
:103070000E946210C701B6010E94FC0F8111FACFB5
:1030800029813A81B90190E080E0A2CF6FEF7FEF14
:10309000CB019ECF6BEF7FEF8FEF9FEF99CF08951E
:1030A000FB0180810895FB014083089580E008952D
:1030B000089508950895089508950895009719F0C2
:1030C0006115710569F48CE598E190931201809384
:1030D00011018DE598E190931401809313010895F7
:1030E0009093120180931101709314016093130166
:1030F0000895209103013091040122273270211597
:103100003105E9F3009719F06115710569F486E559
:1031100098E1909316018093150188E598E19093CA
:10312000180180931701089590931601809315015B
:103130007093180160931701089520910301309155
:1031400004012227327021153105E9F3009719F0A7
:103150006115710569F489E598E190931A018093EE
:1031600019018AE598E190931C0180931B01089551
:1031700090931A018093190170931C0160931B01B5
:103180000895CF93DF93CDB7DEB762970FB6F8946B
:10319000DEBF0FBECDBF26E030E0AE014F5F5F4F18
:1031A00060E079E080E090E00E94C81024E030E028
:1031B000AE01415F5F4F60E071E080E090E00E940F
:1031C000C81024E030E0AE01455F5F4F60E075E07D
:1031D00080E090E00E94C81024E030E0AE01495F3A
:1031E0005F4F60E07FE080E090E00E94C81040E820
:1031F00060E070E0CB010E94621060E070E0CB0103
:103200000E94FC0F26E030E0AE014F5F5F4F60E0B0
:1032100079E080E090E00E944B1124E030E0AE01C4
:10322000415F5F4F60E071E080E090E00E944B11F1
:1032300024E030E0AE01455F5F4F60E075E080E084
:1032400090E00E944B1124E030E0AE01495F5F4FF7
:1032500060E07FE080E090E00E944B1162960FB644
:10326000F894DEBF0FBECDBFDF91CF910895CF920E
:10327000DF92EF92FF920F931F93CF93DF938C0116
:10328000EB010E94C1180115110531F19801285F69
:103290003F4FF80180E09191890F81310CF04CC0D3
:1032A0002E173F07C1F798E0C92E9FE1D92EE12CD8
:1032B000F12CF80141918F01C701B6010E94621003
:1032C000F0E2CF0ED11CE11CF11C88E0C81680E2B0
:1032D000D806E104F10469F7209751F480E0DF910A
:1032E000CF911F910F91FF90EF90DF90CF900895B5
:1032F0009E01285F3F4FFE0180E09191890F81314F
:10330000DCF42E173F07C9F788E0C82E8EE1D82ECF
:10331000E12CF12C4991C701B6010E946210E0E254
:10332000CE0ED11CE11CF11CF8E0CF16FFE1DF0648
:10333000E104F10479F7D2CF8FEFD1CFCF92DF92B2
:10334000EF92FF920F931F93CF93DF93092F10E01B
:10335000482F407F60E075E180E090E00E946210BD
:1033600088E0C82E82E0D82EE12CF12CD0E0C0E01D
:10337000C8010C2E02C0959587950A94E2F780FF4C
:1033800005C04FE1C701B6010E946210219680E29C
:10339000C80ED11CE11CF11C28E0C21623E0D206A5
:1033A000E104F10429F7DF91CF911F910F91FF9074
:1033B000EF90DF90CF900895CF9360E075E180E0CB
:1033C00090E00E94FC0FC82F60E077E180E090E081
:1033D0000E94FC0F282F30E0322F22278C2F807F75
:1033E000820F932F911DCF910895CF93C92F482F0E
:1033F00060E076E180E090E00E9462104C2F60E097
:1034000078E180E090E0CF910C946210CF9360E07F
:1034100076E180E090E00E94FC0FC82F60E078E148
:1034200080E090E00E94FC0F90E0982F88278C0F9E
:10343000911DCF91089560E07EE280E090E00E94CF
:10344000FC0F8170089560E07EE280E090E00E94D1
:10345000FC0F982F987381E0903309F080E0089575
:1034600060E07EE280E090E00E94FC0F482F4F7702
:1034700060E07EE280E090E00E94621060E07EE228
:1034800080E090E00E94FC0F482F406860E07EE200
:1034900080E090E00C946210FC01808140E4813077
:1034A00009F040E08181813049F4486360E07EE2C8
:1034B00080E090E00E9462100C94301A8281938127
:1034C000913031F4813011F44861F0CF4860EECF93
:1034D000813061F74061EACFCF93DF93EC0160E088
:1034E0007EE280E090E00E94FC0F86FB992790F935
:1034F00098838873803211F08833A9F491E099831E
:10350000883121F0803211F0803179F491E09A8392
:10351000883121F0803211F0883049F481E08B83CA
:10352000DF91CF9108951982EBCF1A82F1CF1B82E0
:10353000F7CFCF93C82F60E07EE280E090E00E945A
:10354000FC0F86FF18C0482F477CC130B9F4406398
:1035500060E07EE280E090E00E9462100E94301AFB
:1035600060E07EE280E090E00E94FC0FC13041F418
:103570008073811107C08FEFCF9108954863E8CF22
:103580008873F7CF80E0F8CF1F93CF93DF9380311C
:10359000910508F08DC0EB01FC01EF52F54E0C9443
:1035A0003C1CE11AE81AF91AF41AFE1A031B061B4E
:1035B000151B2A1B3E1B411B451BE31A491B4F1BB6
:1035C000551B0E94C11880E0DF91CF911F91089593
:1035D000685F7F4F209711F470E060E0CE01DF91CB
:1035E000CF911F910C943719888199810E949E195F
:1035F000EACF0E94DC1999838883E5CF888199817D
:103600000E94F519E0CF0E94061AF5CF498160E0CB
:1036100073E180E090E00E946210488160E074E114
:1036200080E090E00E946210CECF60E073E180E025
:1036300090E00E94FC0F182F60E074E180E090E0C1
:103640000E94FC0F212F30E0322F2227820F932F70
:10365000911DD1CF809105018883809106018983D6
:10366000809107018A83809108018B8380910901F1
:103670008C8380910A018D831E82A5CF0E94301A0F
:10368000A2CFCB010E944C1A9ECFCB010E946C1A94
:103690009ACF8881DF91CF911F910C94991A0E9443
:1036A000231A8F3F29F088838ECF0E941B1AF9CFEF
:1036B0008FEF8ACFCF93DF93EC0126E030E0AC01AF
:1036C00060E079E080E090E00E944B11AE01425F43
:1036D0005F4F24E030E060E071E080E090E00E9425
:1036E0004B11AE01465F5F4F24E030E060E075E0D3
:1036F00080E090E00E944B11AE014A5F5F4F24E0F2
:1037000030E060E07FE080E090E00E944B11EFEB62
:10371000F7E08A8980838B8981838C8982838D8974
:1037200083838E899F899093BE078093BD07DF9125
:10373000CF910895CF93DF93EC0126E030E0AC0108
:1037400060E079E080E090E00E94C810AE01425F46
:103750005F4F24E030E060E071E080E090E00E94A4
:10376000C810AE01465F5F4F24E030E060E075E0D6
:1037700080E090E00E94C810AE014A5F5F4F24E0F5
:1037800030E060E07FE080E090E00E94C810EFEB66
:10379000F7E080818A8B81818B8B82818C8B838106
:1037A0008D8B8091BD079091BE079F8B8E8BDF9193
:1037B000CF9108958091C3079091C407A091C50748
:1037C000B091C6070196A11DB11D8093C3079093C8
:1037D000C407A093C507B093C60708952FB7F89400
:1037E0006091C3077091C4078091C5079091C60787
:1037F0002FBF0895991B79E004C0991F961708F010
:10380000961B881F7A95C9F780950895AA1BBB1B44
:1038100051E107C0AA1FBB1FA617B70710F0A61BD0
:10382000B70B881F991F5A95A9F780959095BC01F1
:10383000CD010895A1E21A2EAA1BBB1BFD010DC0EC
:10384000AA1FBB1FEE1FFF1FA217B307E407F50750
:1038500020F0A21BB30BE40BF50B661F771F881F2C
:10386000991F1A9469F760957095809590959B01C2
:10387000AC01BD01CF010895EE0FFF1F0590F4913B
:10388000E02D09940E944D1CA59F900DB49F900DB2
:10389000A49F800D911D11240895A29FB001B39F94
:1038A000C001A39F700D811D1124911DB29F700D49
:1038B000811D1124911D0895FB01DC0102C00190BE
:1038C0000D9241505040D8F70895FC018191861720
:1038D00021F08823D9F7992708953197CF010895CA
:1038E000FB01DC018D91019080190110D9F3990B36
:1038F0000895FB01DC014150504030F08D91019062
:10390000801919F40020B9F7881B990B0895FB0161
:10391000DC014150504048F001900D920020C9F761
:1039200001C01D9241505040E0F70895DC01CB01E9
:10393000FC01F999FECF06C0F2BDE1BDF89A3196BF
:1039400000B40D9241505040B8F70895DC01A40F27
:10395000B51F4150504048F0CB01840F951F2E9168
:103960000E94B71C41505040D0F70895262FF99976
:10397000FECF92BD81BDF89A019700B4021639F0CE
:103980001FBA20BD0FB6F894FA9AF99A0FBE08959F
:04399000F894FFCFD9
:103994000100C0010257353530300000004F185B7C
:1039A400185C185D1850185318000000000000003F
:1039B4004B0000000600DF00EE00F30004010101EB
:1039C4000101010104010101010101010D0A3D3D53
:1039D4003D20536D6172742042656C6C207769746C
:1039E4006820436F6E666967203D3D3D0D0A0054B3
:1039F400797065202768656C702720666F72206374
:103A04006F6D6D616E64730D0A0D0A005B52535441
:103A14005D205744540D0A005B5253545D20424FBD
:103A2400520D0A005B5253545D2045585445524E82
:103A3400414C0D0A005B5253545D20504F57455280
:103A44004F4E0D0A005B4554485D20496E69742051
:103A540057353530300D0A005B4554485D20496EBA
:103A64006974204F4B0D0A005B4554485D204E6538
:103A740074776F726B204F4B0D0A005B4D51545499
:103A84005D20436F6E6E656374696E672E2E2E0D16
:103A94000A005B4D5154545D204E6F2062726F6B6F
:103AA400657220636F6E66696775726564202D2088
:103AB400757365202762722720746F207365740DF7
:103AC4000A005B5359535D20537461727465640D2D
:103AD4000A0D0A005B4D5154545D205265636F6EAC
:103AE4006E6563742E2E2E0D0A00082008005B42BA
:103AF400454C4C5D2052696E6720656E6465640DAB
:103B04000A0031005B4D5154545D205075626C695C
:103B1400736865640D0A00686F6D652F62656C6C6F
:103B24002F72696E670000000000C904D004DF042E
:103B3400EC04F5040000000081068D06AA069D052C
:103B4400A60557495A4348495020494E49542046EE
:103B540041494C4544005B4D5154545D20507562BD
:103B64006C69736820746F6F206C617267650D0AED
:103B7400005B4D5154545D20536F636B6574206436
:103B84006973636F6E6E65637465640D0A005B4DE3
:103B94005154545D204B656570616C697665207481
:103BA400696D656F75740D0A005B4D5154545D2049
:103BB4004E6F206C696E6B0D0A005B4D5154545D61
:103BC40020434F4E4E41434B2072656675736564C6
:103BD4000D0A005B4D5154545D20434F4E4E4143FA
:103BE4004B2074696D656F75740D0A005B4D5154FB
:103BF400545D20536F636B657420636F6E6E6563F1
:103C040074206661696C65640D0A005B4D515454FF
:103C14005D20434F4E4E454354206661696C656494
:103C24000D0A005B4D5154545D20434F4E4E4143A9
:103C34004B206661696C65640D0A005B4D515454F8
:103C44005D20436F6E6E65637465640D0A00736D69
:103C540061727462656C6C005B4346475D204C6F17
:103C6400616465640D0A005B4346475D204C6F61E7
:103C740064656420286D69677261746564290D0A3E
:103C8400005B4346475D20496E76616C69642C2075
:103C94007573696E672064656661756C74730D0A6B
:103CA400005B4346475D2053617665640D0A0068F6
:103CB400656C700073686F7700446576696365208E
:103CC40049503A20002E000D0A47617465776179E6
:103CD4003A20000D0A42726F6B65723A20003A0076
:103CE4000D0A436C69656E742049443A200069707A
:103CF4002000446576696365204950207365740D1E
:103D04000A004572726F723A20496E76616C69647A
:103D14002049500D0A006777200047617465776178
:103D240079207365740D0A004572726F723A2049E6
:103D34006E76616C696420676174657761790D0AD8
:103D4400006272200042726F6B6572207365740D9D
:103D54000A004572726F723A2055736167653A20A2
:103D64006272203C69703E3A3C706F72743E0D0A78
:103D74000069642000436C69656E742049442073B3
:103D840065740D0A004572726F723A20496E76614D
:103D94006C69642049440D0A00736176650072659C
:103DA400736574005B4346475D2044656661756CCA
:103DB4007473206C6F616465640D0A00556E6B6EDC
:0E3DC4006F776E20636F6D6D616E640D0A0087
:00000001FF
